{
  "_format": "hh-sol-artifact-1",
  "contractName": "MarginEngine",
  "sourceName": "contracts/MarginEngine.sol",
  "abi": [
    {
      "inputs": [],
      "stateMutability": "nonpayable",
      "type": "constructor"
    },
    {
      "inputs": [],
      "name": "AavePoolGetReserveNormalizedIncomeReturnedZero",
      "type": "error"
    },
    {
      "inputs": [
        {
          "internalType": "bool",
          "name": "unlocked",
          "type": "bool"
        }
      ],
      "name": "CanOnlyTradeIfUnlocked",
      "type": "error"
    },
    {
      "inputs": [],
      "name": "CannotLiquidate",
      "type": "error"
    },
    {
      "inputs": [],
      "name": "CannotSettleBeforeMaturity",
      "type": "error"
    },
    {
      "inputs": [
        {
          "internalType": "uint256",
          "name": "x",
          "type": "uint256"
        },
        {
          "internalType": "uint256",
          "name": "y",
          "type": "uint256"
        }
      ],
      "name": "DebugError",
      "type": "error"
    },
    {
      "inputs": [
        {
          "internalType": "int256",
          "name": "amount0",
          "type": "int256"
        },
        {
          "internalType": "int256",
          "name": "amount1",
          "type": "int256"
        }
      ],
      "name": "ExpectedOppositeSigns",
      "type": "error"
    },
    {
      "inputs": [
        {
          "internalType": "uint160",
          "name": "sqrtPriceX96",
          "type": "uint160"
        }
      ],
      "name": "ExpectedSqrtPriceZeroBeforeInit",
      "type": "error"
    },
    {
      "inputs": [],
      "name": "IRSNotionalAmountSpecifiedMustBeNonZero",
      "type": "error"
    },
    {
      "inputs": [],
      "name": "InvalidMarginDelta",
      "type": "error"
    },
    {
      "inputs": [
        {
          "internalType": "uint128",
          "name": "amount",
          "type": "uint128"
        }
      ],
      "name": "LiquidityDeltaMustBePositiveInBurn",
      "type": "error"
    },
    {
      "inputs": [
        {
          "internalType": "uint128",
          "name": "amount",
          "type": "uint128"
        }
      ],
      "name": "LiquidityDeltaMustBePositiveInMint",
      "type": "error"
    },
    {
      "inputs": [
        {
          "internalType": "int256",
          "name": "marginRequirement",
          "type": "int256"
        }
      ],
      "name": "MarginLessThanMinimum",
      "type": "error"
    },
    {
      "inputs": [
        {
          "internalType": "int256",
          "name": "marginRequirement",
          "type": "int256"
        },
        {
          "internalType": "int24",
          "name": "tick",
          "type": "int24"
        },
        {
          "internalType": "int256",
          "name": "fixedTokenDelta",
          "type": "int256"
        },
        {
          "internalType": "int256",
          "name": "variableTokenDelta",
          "type": "int256"
        },
        {
          "internalType": "uint256",
          "name": "cumulativeFeeIncurred",
          "type": "uint256"
        },
        {
          "internalType": "int256",
          "name": "fixedTokenDeltaUnbalanced",
          "type": "int256"
        }
      ],
      "name": "MarginRequirementNotMet",
      "type": "error"
    },
    {
      "inputs": [
        {
          "internalType": "int256",
          "name": "marginRequirement",
          "type": "int256"
        }
      ],
      "name": "MarginRequirementNotMetFCM",
      "type": "error"
    },
    {
      "inputs": [
        {
          "internalType": "uint256",
          "name": "requested",
          "type": "uint256"
        },
        {
          "internalType": "uint256",
          "name": "available",
          "type": "uint256"
        }
      ],
      "name": "NotEnoughFunds",
      "type": "error"
    },
    {
      "inputs": [],
      "name": "OOO",
      "type": "error"
    },
    {
      "inputs": [],
      "name": "OnlyFCM",
      "type": "error"
    },
    {
      "inputs": [],
      "name": "OnlyMarginEngine",
      "type": "error"
    },
    {
      "inputs": [],
      "name": "OnlyOwnerCanUpdatePosition",
      "type": "error"
    },
    {
      "inputs": [],
      "name": "OnlyVAMM",
      "type": "error"
    },
    {
      "inputs": [],
      "name": "PRBMathSD59x18__DivInputTooSmall",
      "type": "error"
    },
    {
      "inputs": [
        {
          "internalType": "uint256",
          "name": "rAbs",
          "type": "uint256"
        }
      ],
      "name": "PRBMathSD59x18__DivOverflow",
      "type": "error"
    },
    {
      "inputs": [
        {
          "internalType": "int256",
          "name": "x",
          "type": "int256"
        }
      ],
      "name": "PRBMathSD59x18__Exp2InputTooBig",
      "type": "error"
    },
    {
      "inputs": [
        {
          "internalType": "int256",
          "name": "x",
          "type": "int256"
        }
      ],
      "name": "PRBMathSD59x18__ExpInputTooBig",
      "type": "error"
    },
    {
      "inputs": [
        {
          "internalType": "int256",
          "name": "x",
          "type": "int256"
        }
      ],
      "name": "PRBMathSD59x18__FromIntOverflow",
      "type": "error"
    },
    {
      "inputs": [
        {
          "internalType": "int256",
          "name": "x",
          "type": "int256"
        }
      ],
      "name": "PRBMathSD59x18__FromIntUnderflow",
      "type": "error"
    },
    {
      "inputs": [],
      "name": "PRBMathSD59x18__MulInputTooSmall",
      "type": "error"
    },
    {
      "inputs": [
        {
          "internalType": "uint256",
          "name": "rAbs",
          "type": "uint256"
        }
      ],
      "name": "PRBMathSD59x18__MulOverflow",
      "type": "error"
    },
    {
      "inputs": [
        {
          "internalType": "int256",
          "name": "x",
          "type": "int256"
        }
      ],
      "name": "PRBMathSD59x18__SqrtNegativeInput",
      "type": "error"
    },
    {
      "inputs": [
        {
          "internalType": "int256",
          "name": "x",
          "type": "int256"
        }
      ],
      "name": "PRBMathSD59x18__SqrtOverflow",
      "type": "error"
    },
    {
      "inputs": [
        {
          "internalType": "uint256",
          "name": "x",
          "type": "uint256"
        }
      ],
      "name": "PRBMathUD60x18__FromUintOverflow",
      "type": "error"
    },
    {
      "inputs": [
        {
          "internalType": "uint256",
          "name": "prod1",
          "type": "uint256"
        }
      ],
      "name": "PRBMath__MulDivFixedPointOverflow",
      "type": "error"
    },
    {
      "inputs": [
        {
          "internalType": "uint256",
          "name": "prod1",
          "type": "uint256"
        },
        {
          "internalType": "uint256",
          "name": "denominator",
          "type": "uint256"
        }
      ],
      "name": "PRBMath__MulDivOverflow",
      "type": "error"
    },
    {
      "inputs": [],
      "name": "PositionNetZero",
      "type": "error"
    },
    {
      "inputs": [],
      "name": "PositionNotSettled",
      "type": "error"
    },
    {
      "inputs": [],
      "name": "WithdrawalExceedsCurrentMargin",
      "type": "error"
    },
    {
      "inputs": [],
      "name": "closeToOrBeyondMaturity",
      "type": "error"
    },
    {
      "anonymous": false,
      "inputs": [
        {
          "indexed": false,
          "internalType": "address",
          "name": "previousAdmin",
          "type": "address"
        },
        {
          "indexed": false,
          "internalType": "address",
          "name": "newAdmin",
          "type": "address"
        }
      ],
      "name": "AdminChanged",
      "type": "event"
    },
    {
      "anonymous": false,
      "inputs": [
        {
          "indexed": true,
          "internalType": "address",
          "name": "beacon",
          "type": "address"
        }
      ],
      "name": "BeaconUpgraded",
      "type": "event"
    },
    {
      "anonymous": false,
      "inputs": [
        {
          "indexed": false,
          "internalType": "uint256",
          "name": "cacheMaxAgeInSeconds",
          "type": "uint256"
        }
      ],
      "name": "CacheMaxAgeSetting",
      "type": "event"
    },
    {
      "anonymous": false,
      "inputs": [
        {
          "indexed": true,
          "internalType": "contract IFCM",
          "name": "fcm",
          "type": "address"
        }
      ],
      "name": "FCMSetting",
      "type": "event"
    },
    {
      "anonymous": false,
      "inputs": [
        {
          "indexed": false,
          "internalType": "uint256",
          "name": "secondsAgo",
          "type": "uint256"
        }
      ],
      "name": "HistoricalApyWindowSetting",
      "type": "event"
    },
    {
      "anonymous": false,
      "inputs": [
        {
          "indexed": false,
          "internalType": "uint256",
          "name": "liquidatorRewardWad",
          "type": "uint256"
        }
      ],
      "name": "LiquidatorRewardSetting",
      "type": "event"
    },
    {
      "anonymous": false,
      "inputs": [
        {
          "components": [
            {
              "internalType": "uint256",
              "name": "apyUpperMultiplierWad",
              "type": "uint256"
            },
            {
              "internalType": "uint256",
              "name": "apyLowerMultiplierWad",
              "type": "uint256"
            },
            {
              "internalType": "int256",
              "name": "sigmaSquaredWad",
              "type": "int256"
            },
            {
              "internalType": "int256",
              "name": "alphaWad",
              "type": "int256"
            },
            {
              "internalType": "int256",
              "name": "betaWad",
              "type": "int256"
            },
            {
              "internalType": "int256",
              "name": "xiUpperWad",
              "type": "int256"
            },
            {
              "internalType": "int256",
              "name": "xiLowerWad",
              "type": "int256"
            },
            {
              "internalType": "int256",
              "name": "tMaxWad",
              "type": "int256"
            },
            {
              "internalType": "uint256",
              "name": "devMulLeftUnwindLMWad",
              "type": "uint256"
            },
            {
              "internalType": "uint256",
              "name": "devMulRightUnwindLMWad",
              "type": "uint256"
            },
            {
              "internalType": "uint256",
              "name": "devMulLeftUnwindIMWad",
              "type": "uint256"
            },
            {
              "internalType": "uint256",
              "name": "devMulRightUnwindIMWad",
              "type": "uint256"
            },
            {
              "internalType": "uint256",
              "name": "fixedRateDeviationMinLeftUnwindLMWad",
              "type": "uint256"
            },
            {
              "internalType": "uint256",
              "name": "fixedRateDeviationMinRightUnwindLMWad",
              "type": "uint256"
            },
            {
              "internalType": "uint256",
              "name": "fixedRateDeviationMinLeftUnwindIMWad",
              "type": "uint256"
            },
            {
              "internalType": "uint256",
              "name": "fixedRateDeviationMinRightUnwindIMWad",
              "type": "uint256"
            },
            {
              "internalType": "uint256",
              "name": "gammaWad",
              "type": "uint256"
            },
            {
              "internalType": "uint256",
              "name": "minMarginToIncentiviseLiquidators",
              "type": "uint256"
            }
          ],
          "indexed": false,
          "internalType": "struct IMarginEngine.MarginCalculatorParameters",
          "name": "marginCalculatorParameters",
          "type": "tuple"
        }
      ],
      "name": "MarginCalculatorParametersSetting",
      "type": "event"
    },
    {
      "anonymous": false,
      "inputs": [
        {
          "indexed": true,
          "internalType": "address",
          "name": "previousOwner",
          "type": "address"
        },
        {
          "indexed": true,
          "internalType": "address",
          "name": "newOwner",
          "type": "address"
        }
      ],
      "name": "OwnershipTransferred",
      "type": "event"
    },
    {
      "anonymous": false,
      "inputs": [
        {
          "indexed": false,
          "internalType": "address",
          "name": "account",
          "type": "address"
        }
      ],
      "name": "Paused",
      "type": "event"
    },
    {
      "anonymous": false,
      "inputs": [
        {
          "indexed": true,
          "internalType": "address",
          "name": "owner",
          "type": "address"
        },
        {
          "indexed": true,
          "internalType": "int24",
          "name": "tickLower",
          "type": "int24"
        },
        {
          "indexed": true,
          "internalType": "int24",
          "name": "tickUpper",
          "type": "int24"
        },
        {
          "indexed": false,
          "internalType": "int256",
          "name": "fixedTokenBalance",
          "type": "int256"
        },
        {
          "indexed": false,
          "internalType": "int256",
          "name": "variableTokenBalance",
          "type": "int256"
        },
        {
          "indexed": false,
          "internalType": "int256",
          "name": "margin",
          "type": "int256"
        },
        {
          "indexed": false,
          "internalType": "uint128",
          "name": "liquidity",
          "type": "uint128"
        },
        {
          "indexed": false,
          "internalType": "address",
          "name": "liquidator",
          "type": "address"
        }
      ],
      "name": "PositionLiquidation",
      "type": "event"
    },
    {
      "anonymous": false,
      "inputs": [
        {
          "indexed": true,
          "internalType": "address",
          "name": "owner",
          "type": "address"
        },
        {
          "indexed": true,
          "internalType": "int24",
          "name": "tickLower",
          "type": "int24"
        },
        {
          "indexed": true,
          "internalType": "int24",
          "name": "tickUpper",
          "type": "int24"
        },
        {
          "indexed": false,
          "internalType": "int256",
          "name": "positionMargin",
          "type": "int256"
        }
      ],
      "name": "PositionMarginUpdate",
      "type": "event"
    },
    {
      "anonymous": false,
      "inputs": [
        {
          "indexed": true,
          "internalType": "address",
          "name": "owner",
          "type": "address"
        },
        {
          "indexed": true,
          "internalType": "int24",
          "name": "tickLower",
          "type": "int24"
        },
        {
          "indexed": true,
          "internalType": "int24",
          "name": "tickUpper",
          "type": "int24"
        },
        {
          "indexed": false,
          "internalType": "uint128",
          "name": "liquidity",
          "type": "uint128"
        }
      ],
      "name": "PositionPostMintBurnUpdate",
      "type": "event"
    },
    {
      "anonymous": false,
      "inputs": [
        {
          "indexed": true,
          "internalType": "address",
          "name": "owner",
          "type": "address"
        },
        {
          "indexed": true,
          "internalType": "int24",
          "name": "tickLower",
          "type": "int24"
        },
        {
          "indexed": true,
          "internalType": "int24",
          "name": "tickUpper",
          "type": "int24"
        },
        {
          "indexed": false,
          "internalType": "int256",
          "name": "fixedTokenBalance",
          "type": "int256"
        },
        {
          "indexed": false,
          "internalType": "int256",
          "name": "variableTokenBalance",
          "type": "int256"
        },
        {
          "indexed": false,
          "internalType": "int256",
          "name": "margin",
          "type": "int256"
        }
      ],
      "name": "PositionPostSwapUpdate",
      "type": "event"
    },
    {
      "anonymous": false,
      "inputs": [
        {
          "indexed": true,
          "internalType": "address",
          "name": "owner",
          "type": "address"
        },
        {
          "indexed": true,
          "internalType": "int24",
          "name": "tickLower",
          "type": "int24"
        },
        {
          "indexed": true,
          "internalType": "int24",
          "name": "tickUpper",
          "type": "int24"
        },
        {
          "indexed": false,
          "internalType": "int256",
          "name": "fixedTokenBalance",
          "type": "int256"
        },
        {
          "indexed": false,
          "internalType": "int256",
          "name": "variableTokenBalance",
          "type": "int256"
        },
        {
          "indexed": false,
          "internalType": "int256",
          "name": "margin",
          "type": "int256"
        },
        {
          "indexed": false,
          "internalType": "int256",
          "name": "settlementCashflow",
          "type": "int256"
        },
        {
          "indexed": false,
          "internalType": "bool",
          "name": "isSettled",
          "type": "bool"
        }
      ],
      "name": "PositionSettlement",
      "type": "event"
    },
    {
      "anonymous": false,
      "inputs": [
        {
          "indexed": false,
          "internalType": "address",
          "name": "sender",
          "type": "address"
        },
        {
          "indexed": true,
          "internalType": "address",
          "name": "recipient",
          "type": "address"
        },
        {
          "indexed": false,
          "internalType": "uint256",
          "name": "amount",
          "type": "uint256"
        }
      ],
      "name": "ProtocolCollection",
      "type": "event"
    },
    {
      "anonymous": false,
      "inputs": [
        {
          "indexed": false,
          "internalType": "address",
          "name": "account",
          "type": "address"
        }
      ],
      "name": "Unpaused",
      "type": "event"
    },
    {
      "anonymous": false,
      "inputs": [
        {
          "indexed": true,
          "internalType": "address",
          "name": "implementation",
          "type": "address"
        }
      ],
      "name": "Upgraded",
      "type": "event"
    },
    {
      "anonymous": false,
      "inputs": [
        {
          "indexed": true,
          "internalType": "contract IVAMM",
          "name": "vamm",
          "type": "address"
        }
      ],
      "name": "VAMMSetting",
      "type": "event"
    },
    {
      "inputs": [],
      "name": "MAX_CACHE_MAX_AGE_IN_SECONDS",
      "outputs": [
        {
          "internalType": "uint256",
          "name": "",
          "type": "uint256"
        }
      ],
      "stateMutability": "view",
      "type": "function"
    },
    {
      "inputs": [],
      "name": "MAX_LIQUIDATOR_REWARD_WAD",
      "outputs": [
        {
          "internalType": "uint256",
          "name": "",
          "type": "uint256"
        }
      ],
      "stateMutability": "view",
      "type": "function"
    },
    {
      "inputs": [],
      "name": "MAX_LOOKBACK_WINDOW_IN_SECONDS",
      "outputs": [
        {
          "internalType": "uint256",
          "name": "",
          "type": "uint256"
        }
      ],
      "stateMutability": "view",
      "type": "function"
    },
    {
      "inputs": [],
      "name": "MIN_LOOKBACK_WINDOW_IN_SECONDS",
      "outputs": [
        {
          "internalType": "uint256",
          "name": "",
          "type": "uint256"
        }
      ],
      "stateMutability": "view",
      "type": "function"
    },
    {
      "inputs": [],
      "name": "cacheMaxAgeInSeconds",
      "outputs": [
        {
          "internalType": "uint256",
          "name": "",
          "type": "uint256"
        }
      ],
      "stateMutability": "view",
      "type": "function"
    },
    {
      "inputs": [
        {
          "internalType": "address",
          "name": "_recipient",
          "type": "address"
        },
        {
          "internalType": "uint256",
          "name": "_amount",
          "type": "uint256"
        }
      ],
      "name": "collectProtocol",
      "outputs": [],
      "stateMutability": "nonpayable",
      "type": "function"
    },
    {
      "inputs": [],
      "name": "factory",
      "outputs": [
        {
          "internalType": "contract IFactory",
          "name": "",
          "type": "address"
        }
      ],
      "stateMutability": "view",
      "type": "function"
    },
    {
      "inputs": [],
      "name": "fcm",
      "outputs": [
        {
          "internalType": "contract IFCM",
          "name": "",
          "type": "address"
        }
      ],
      "stateMutability": "view",
      "type": "function"
    },
    {
      "inputs": [],
      "name": "getHistoricalApy",
      "outputs": [
        {
          "internalType": "uint256",
          "name": "",
          "type": "uint256"
        }
      ],
      "stateMutability": "nonpayable",
      "type": "function"
    },
    {
      "inputs": [],
      "name": "getHistoricalApyReadOnly",
      "outputs": [
        {
          "internalType": "uint256",
          "name": "",
          "type": "uint256"
        }
      ],
      "stateMutability": "view",
      "type": "function"
    },
    {
      "inputs": [
        {
          "internalType": "address",
          "name": "_owner",
          "type": "address"
        },
        {
          "internalType": "int24",
          "name": "_tickLower",
          "type": "int24"
        },
        {
          "internalType": "int24",
          "name": "_tickUpper",
          "type": "int24"
        }
      ],
      "name": "getPosition",
      "outputs": [
        {
          "components": [
            {
              "internalType": "bool",
              "name": "isSettled",
              "type": "bool"
            },
            {
              "internalType": "uint128",
              "name": "_liquidity",
              "type": "uint128"
            },
            {
              "internalType": "int256",
              "name": "margin",
              "type": "int256"
            },
            {
              "internalType": "int256",
              "name": "fixedTokenGrowthInsideLastX128",
              "type": "int256"
            },
            {
              "internalType": "int256",
              "name": "variableTokenGrowthInsideLastX128",
              "type": "int256"
            },
            {
              "internalType": "int256",
              "name": "fixedTokenBalance",
              "type": "int256"
            },
            {
              "internalType": "int256",
              "name": "variableTokenBalance",
              "type": "int256"
            },
            {
              "internalType": "uint256",
              "name": "feeGrowthInsideLastX128",
              "type": "uint256"
            },
            {
              "internalType": "uint256",
              "name": "rewardPerAmount",
              "type": "uint256"
            }
          ],
          "internalType": "struct Position.Info",
          "name": "",
          "type": "tuple"
        }
      ],
      "stateMutability": "nonpayable",
      "type": "function"
    },
    {
      "inputs": [
        {
          "internalType": "address",
          "name": "_recipient",
          "type": "address"
        },
        {
          "internalType": "int24",
          "name": "_tickLower",
          "type": "int24"
        },
        {
          "internalType": "int24",
          "name": "_tickUpper",
          "type": "int24"
        },
        {
          "internalType": "bool",
          "name": "_isLM",
          "type": "bool"
        }
      ],
      "name": "getPositionMarginRequirement",
      "outputs": [
        {
          "internalType": "uint256",
          "name": "_margin",
          "type": "uint256"
        }
      ],
      "stateMutability": "nonpayable",
      "type": "function"
    },
    {
      "inputs": [
        {
          "internalType": "contract IERC20Minimal",
          "name": "__underlyingToken",
          "type": "address"
        },
        {
          "internalType": "contract IRateOracle",
          "name": "__rateOracle",
          "type": "address"
        },
        {
          "internalType": "uint256",
          "name": "__termStartTimestampWad",
          "type": "uint256"
        },
        {
          "internalType": "uint256",
          "name": "__termEndTimestampWad",
          "type": "uint256"
        }
      ],
      "name": "initialize",
      "outputs": [],
      "stateMutability": "nonpayable",
      "type": "function"
    },
    {
      "inputs": [
        {
          "internalType": "address",
          "name": "_owner",
          "type": "address"
        },
        {
          "internalType": "int24",
          "name": "_tickLower",
          "type": "int24"
        },
        {
          "internalType": "int24",
          "name": "_tickUpper",
          "type": "int24"
        }
      ],
      "name": "liquidatePosition",
      "outputs": [
        {
          "internalType": "uint256",
          "name": "",
          "type": "uint256"
        }
      ],
      "stateMutability": "nonpayable",
      "type": "function"
    },
    {
      "inputs": [],
      "name": "liquidatorRewardWad",
      "outputs": [
        {
          "internalType": "uint256",
          "name": "",
          "type": "uint256"
        }
      ],
      "stateMutability": "view",
      "type": "function"
    },
    {
      "inputs": [],
      "name": "lookbackWindowInSeconds",
      "outputs": [
        {
          "internalType": "uint256",
          "name": "",
          "type": "uint256"
        }
      ],
      "stateMutability": "view",
      "type": "function"
    },
    {
      "inputs": [],
      "name": "owner",
      "outputs": [
        {
          "internalType": "address",
          "name": "",
          "type": "address"
        }
      ],
      "stateMutability": "view",
      "type": "function"
    },
    {
      "inputs": [],
      "name": "paused",
      "outputs": [
        {
          "internalType": "bool",
          "name": "",
          "type": "bool"
        }
      ],
      "stateMutability": "view",
      "type": "function"
    },
    {
      "inputs": [],
      "name": "rateOracle",
      "outputs": [
        {
          "internalType": "contract IRateOracle",
          "name": "",
          "type": "address"
        }
      ],
      "stateMutability": "view",
      "type": "function"
    },
    {
      "inputs": [],
      "name": "renounceOwnership",
      "outputs": [],
      "stateMutability": "nonpayable",
      "type": "function"
    },
    {
      "inputs": [
        {
          "internalType": "uint256",
          "name": "_newCacheMaxAgeInSeconds",
          "type": "uint256"
        }
      ],
      "name": "setCacheMaxAgeInSeconds",
      "outputs": [],
      "stateMutability": "nonpayable",
      "type": "function"
    },
    {
      "inputs": [
        {
          "internalType": "contract IFCM",
          "name": "_newFCM",
          "type": "address"
        }
      ],
      "name": "setFCM",
      "outputs": [],
      "stateMutability": "nonpayable",
      "type": "function"
    },
    {
      "inputs": [
        {
          "internalType": "uint256",
          "name": "_newLiquidatorRewardWad",
          "type": "uint256"
        }
      ],
      "name": "setLiquidatorReward",
      "outputs": [],
      "stateMutability": "nonpayable",
      "type": "function"
    },
    {
      "inputs": [
        {
          "internalType": "uint256",
          "name": "_newSecondsAgo",
          "type": "uint256"
        }
      ],
      "name": "setLookbackWindowInSeconds",
      "outputs": [],
      "stateMutability": "nonpayable",
      "type": "function"
    },
    {
      "inputs": [
        {
          "components": [
            {
              "internalType": "uint256",
              "name": "apyUpperMultiplierWad",
              "type": "uint256"
            },
            {
              "internalType": "uint256",
              "name": "apyLowerMultiplierWad",
              "type": "uint256"
            },
            {
              "internalType": "int256",
              "name": "sigmaSquaredWad",
              "type": "int256"
            },
            {
              "internalType": "int256",
              "name": "alphaWad",
              "type": "int256"
            },
            {
              "internalType": "int256",
              "name": "betaWad",
              "type": "int256"
            },
            {
              "internalType": "int256",
              "name": "xiUpperWad",
              "type": "int256"
            },
            {
              "internalType": "int256",
              "name": "xiLowerWad",
              "type": "int256"
            },
            {
              "internalType": "int256",
              "name": "tMaxWad",
              "type": "int256"
            },
            {
              "internalType": "uint256",
              "name": "devMulLeftUnwindLMWad",
              "type": "uint256"
            },
            {
              "internalType": "uint256",
              "name": "devMulRightUnwindLMWad",
              "type": "uint256"
            },
            {
              "internalType": "uint256",
              "name": "devMulLeftUnwindIMWad",
              "type": "uint256"
            },
            {
              "internalType": "uint256",
              "name": "devMulRightUnwindIMWad",
              "type": "uint256"
            },
            {
              "internalType": "uint256",
              "name": "fixedRateDeviationMinLeftUnwindLMWad",
              "type": "uint256"
            },
            {
              "internalType": "uint256",
              "name": "fixedRateDeviationMinRightUnwindLMWad",
              "type": "uint256"
            },
            {
              "internalType": "uint256",
              "name": "fixedRateDeviationMinLeftUnwindIMWad",
              "type": "uint256"
            },
            {
              "internalType": "uint256",
              "name": "fixedRateDeviationMinRightUnwindIMWad",
              "type": "uint256"
            },
            {
              "internalType": "uint256",
              "name": "gammaWad",
              "type": "uint256"
            },
            {
              "internalType": "uint256",
              "name": "minMarginToIncentiviseLiquidators",
              "type": "uint256"
            }
          ],
          "internalType": "struct IMarginEngine.MarginCalculatorParameters",
          "name": "_marginCalculatorParameters",
          "type": "tuple"
        }
      ],
      "name": "setMarginCalculatorParameters",
      "outputs": [],
      "stateMutability": "nonpayable",
      "type": "function"
    },
    {
      "inputs": [
        {
          "internalType": "contract IVAMM",
          "name": "_vAMM",
          "type": "address"
        }
      ],
      "name": "setVAMM",
      "outputs": [],
      "stateMutability": "nonpayable",
      "type": "function"
    },
    {
      "inputs": [
        {
          "internalType": "address",
          "name": "_owner",
          "type": "address"
        },
        {
          "internalType": "int24",
          "name": "_tickLower",
          "type": "int24"
        },
        {
          "internalType": "int24",
          "name": "_tickUpper",
          "type": "int24"
        }
      ],
      "name": "settlePosition",
      "outputs": [],
      "stateMutability": "nonpayable",
      "type": "function"
    },
    {
      "inputs": [],
      "name": "termEndTimestampWad",
      "outputs": [
        {
          "internalType": "uint256",
          "name": "",
          "type": "uint256"
        }
      ],
      "stateMutability": "view",
      "type": "function"
    },
    {
      "inputs": [],
      "name": "termStartTimestampWad",
      "outputs": [
        {
          "internalType": "uint256",
          "name": "",
          "type": "uint256"
        }
      ],
      "stateMutability": "view",
      "type": "function"
    },
    {
      "inputs": [
        {
          "internalType": "address",
          "name": "_account",
          "type": "address"
        },
        {
          "internalType": "uint256",
          "name": "_marginDelta",
          "type": "uint256"
        }
      ],
      "name": "transferMarginToFCMTrader",
      "outputs": [],
      "stateMutability": "nonpayable",
      "type": "function"
    },
    {
      "inputs": [
        {
          "internalType": "address",
          "name": "newOwner",
          "type": "address"
        }
      ],
      "name": "transferOwnership",
      "outputs": [],
      "stateMutability": "nonpayable",
      "type": "function"
    },
    {
      "inputs": [],
      "name": "underlyingToken",
      "outputs": [
        {
          "internalType": "contract IERC20Minimal",
          "name": "",
          "type": "address"
        }
      ],
      "stateMutability": "view",
      "type": "function"
    },
    {
      "inputs": [
        {
          "internalType": "address",
          "name": "_owner",
          "type": "address"
        },
        {
          "internalType": "int24",
          "name": "_tickLower",
          "type": "int24"
        },
        {
          "internalType": "int24",
          "name": "_tickUpper",
          "type": "int24"
        },
        {
          "internalType": "int256",
          "name": "_marginDelta",
          "type": "int256"
        }
      ],
      "name": "updatePositionMargin",
      "outputs": [],
      "stateMutability": "nonpayable",
      "type": "function"
    },
    {
      "inputs": [
        {
          "components": [
            {
              "internalType": "address",
              "name": "owner",
              "type": "address"
            },
            {
              "internalType": "int24",
              "name": "tickLower",
              "type": "int24"
            },
            {
              "internalType": "int24",
              "name": "tickUpper",
              "type": "int24"
            },
            {
              "internalType": "int128",
              "name": "liquidityDelta",
              "type": "int128"
            }
          ],
          "internalType": "struct IPositionStructs.ModifyPositionParams",
          "name": "_params",
          "type": "tuple"
        }
      ],
      "name": "updatePositionPostVAMMInducedMintBurn",
      "outputs": [
        {
          "internalType": "int256",
          "name": "_positionMarginRequirement",
          "type": "int256"
        }
      ],
      "stateMutability": "nonpayable",
      "type": "function"
    },
    {
      "inputs": [
        {
          "internalType": "address",
          "name": "_owner",
          "type": "address"
        },
        {
          "internalType": "int24",
          "name": "_tickLower",
          "type": "int24"
        },
        {
          "internalType": "int24",
          "name": "_tickUpper",
          "type": "int24"
        },
        {
          "internalType": "int256",
          "name": "_fixedTokenDelta",
          "type": "int256"
        },
        {
          "internalType": "int256",
          "name": "_variableTokenDelta",
          "type": "int256"
        },
        {
          "internalType": "uint256",
          "name": "_cumulativeFeeIncurred",
          "type": "uint256"
        },
        {
          "internalType": "int256",
          "name": "_fixedTokenDeltaUnbalanced",
          "type": "int256"
        }
      ],
      "name": "updatePositionPostVAMMInducedSwap",
      "outputs": [
        {
          "internalType": "int256",
          "name": "_positionMarginRequirement",
          "type": "int256"
        }
      ],
      "stateMutability": "nonpayable",
      "type": "function"
    },
    {
      "inputs": [
        {
          "internalType": "address",
          "name": "newImplementation",
          "type": "address"
        }
      ],
      "name": "upgradeTo",
      "outputs": [],
      "stateMutability": "nonpayable",
      "type": "function"
    },
    {
      "inputs": [
        {
          "internalType": "address",
          "name": "newImplementation",
          "type": "address"
        },
        {
          "internalType": "bytes",
          "name": "data",
          "type": "bytes"
        }
      ],
      "name": "upgradeToAndCall",
      "outputs": [],
      "stateMutability": "payable",
      "type": "function"
    },
    {
      "inputs": [],
      "name": "vamm",
      "outputs": [
        {
          "internalType": "contract IVAMM",
          "name": "",
          "type": "address"
        }
      ],
      "stateMutability": "view",
      "type": "function"
    }
  ],
  "bytecode": "0x60a0604052306080523480156200001557600080fd5b50606454610100900460ff16620000335760645460ff16156200003d565b6200003d620000e2565b620000a55760405162461bcd60e51b815260206004820152602e60248201527f496e697469616c697a61626c653a20636f6e747261637420697320616c72656160448201526d191e481a5b9a5d1a585b1a5e995960921b606482015260840160405180910390fd5b606454610100900460ff16158015620000c8576064805461ffff19166101011790555b8015620000db576064805461ff00191690555b5062000106565b6000620000fa306200010060201b62001d131760201c565b15905090565b3b151590565b608051615d536200013760003960008181610995015281816109d501528181610a5e0152610a9e0152615d536000f3fe6080604052600436106101b55760003560e01c80631656503e146101ba57806322d23b21146101ed5780632495a599146102145780633659cfe6146102325780634f1ef28614610254578063534d3375146102675780635c975abb146102875780635f6a3e0c146102aa578063652c30b7146102c0578063715018a6146102d5578063754e2a8f146102ea5780637717797f1461030a57806386b127ee1461032a57806387e16303146103415780638da5cb5b1461035d5780639209e9ba1461037257806393edb4541461040457806398f4b1b2146104195780639cbff18814610437578063a1ea6a201461044c578063a725b9651461046c578063b5c22d491461048c578063b623f519146104ac578063bfb5607d146104c1578063c09617ae146104e1578063c326189214610501578063c45a015514610521578063c7607a9c1461053f578063d50d88111461055f578063e087caf114610574578063e098372c14610589578063e3f08374146105a7578063e9e441bb146105bc578063eb990c59146105dc578063efcfc3f9146105fc578063f12161051461061c578063f2fde38b1461063c578063f907bd6d1461065c575b600080fd5b3480156101c657600080fd5b506101da6101d53660046152bd565b610674565b6040519081526020015b60405180910390f35b3480156101f957600080fd5b506004546001600160a01b03165b6040516101e49190615308565b34801561022057600080fd5b506001546001600160a01b0316610207565b34801561023e57600080fd5b5061025261024d36600461531c565b61098a565b005b6102526102623660046153a8565b610a53565b34801561027357600080fd5b5061025261028236600461531c565b610b0d565b34801561029357600080fd5b5060c95460ff1660405190151581526020016101e4565b3480156102b657600080fd5b506101da610e1081565b3480156102cc57600080fd5b506002546101da565b3480156102e157600080fd5b50610252610b86565b3480156102f657600080fd5b5061025261030536600461544f565b610bc1565b34801561031657600080fd5b5061025261032536600461547b565b610cd6565b34801561033657600080fd5b506101da6212750081565b34801561034d57600080fd5b506101da670429d069189e000081565b34801561036957600080fd5b50610207610ee2565b34801561037e57600080fd5b5061039261038d3660046152bd565b610ef1565b6040516101e491908151151581526020808301516001600160801b03169082015260408083015190820152606080830151908201526080808301519082015260a0808301519082015260c0808301519082015260e0808301519082015261010091820151918101919091526101200190565b34801561041057600080fd5b506003546101da565b34801561042557600080fd5b50600c546001600160a01b0316610207565b34801561044357600080fd5b506007546101da565b34801561045857600080fd5b506102526104673660046154cc565b610fe3565b34801561047857600080fd5b506102526104873660046152bd565b6110a0565b34801561049857600080fd5b506102526104a73660046154e5565b61126a565b3480156104b857600080fd5b50600a546101da565b3480156104cd57600080fd5b506101da6104dc3660046155c1565b61141a565b3480156104ed57600080fd5b506101da6104fc36600461564c565b611548565b34801561050d57600080fd5b5061025261051c3660046154cc565b611788565b34801561052d57600080fd5b50600b546001600160a01b0316610207565b34801561054b57600080fd5b5061025261055a36600461531c565b611833565b34801561056b57600080fd5b506101da6118ac565b34801561058057600080fd5b506000546101da565b34801561059557600080fd5b506006546001600160a01b0316610207565b3480156105b357600080fd5b506101da6118d9565b3480156105c857600080fd5b506102526105d73660046154cc565b6118fa565b3480156105e857600080fd5b506102526105f73660046156ba565b6119ae565b34801561060857600080fd5b5061025261061736600461544f565b611bda565b34801561062857600080fd5b506101da61063736600461570e565b611c3f565b34801561064857600080fd5b5061025261065736600461531c565b611c76565b34801561066857600080fd5b506101da6312cc030081565b600061068260c95460ff1690565b156106a85760405162461bcd60e51b815260040161069f9061576a565b60405180910390fd5b6106b3600354611d19565b156106d1576040516314eb7aa760e21b815260040160405180910390fd5b6106db8383611d41565b60006106ea6005868686611e02565b90506106f98185856000611e6d565b600080610707838787612042565b91509150816107295760405163bf87c7d560e01b815260040160405180910390fd5b600783015461079357600080846005015412610749578360050154610757565b8360050154610757906157aa565b90506000846001015413156107895761077f6107798560010154600054612069565b82612075565b6007850155610791565b600060078501555b505b825461010090046001600160801b031615610873576006548354604051631f2f089360e01b81526001600160a01b038a8116600483015260028a810b602484015289900b60448301526101009092046001600160801b03166064820152911690631f2f089390608401602060405180830381600087803b15801561081657600080fd5b505af115801561082a573d6000803e3d6000fd5b505050506040513d601f19601f8201168201806040525081019061084e91906157c7565b5082546108739061086c9061010090046001600160801b03166157e0565b849061208a565b600061088184898989612183565b905080610895576000945050505050610983565b60008082126108b1576108ac828660070154612069565b6108c7565b6108c76108bd836157aa565b8660070154612069565b90506108e56108d582612313565b6108de906157aa565b8690612381565b6001546108fc906001600160a01b0316338361239e565b60048501546005860154600187015487546040805194855260208501939093529183015261010090046001600160801b03166060820152336080820152600288810b91908a900b906001600160a01b038c16907fea731703340b1c33cd59ddb32bac4d73283dddee68869940e000d79f4250bd9c9060a00160405180910390a49450505050505b9392505050565b306001600160a01b037f00000000000000000000000000000000000000000000000000000000000000001614156109d35760405162461bcd60e51b815260040161069f90615808565b7f00000000000000000000000000000000000000000000000000000000000000006001600160a01b0316610a05612417565b6001600160a01b031614610a2b5760405162461bcd60e51b815260040161069f90615842565b610a3481612433565b60408051600080825260208201909252610a5091839190612462565b50565b306001600160a01b037f0000000000000000000000000000000000000000000000000000000000000000161415610a9c5760405162461bcd60e51b815260040161069f90615808565b7f00000000000000000000000000000000000000000000000000000000000000006001600160a01b0316610ace612417565b6001600160a01b031614610af45760405162461bcd60e51b815260040161069f90615842565b610afd82612433565b610b0982826001612462565b5050565b33610b16610ee2565b6001600160a01b031614610b3c5760405162461bcd60e51b815260040161069f9061587c565b600480546001600160a01b0319166001600160a01b0383169081179091556040517fb637eb25e9652bee83990e0c20b043e658d22a8b4739422ebd3862bf9ff53dc590600090a250565b33610b8f610ee2565b6001600160a01b031614610bb55760405162461bcd60e51b815260040161069f9061587c565b610bbf60006125a2565b565b60c95460ff1615610be45760405162461bcd60e51b815260040161069f9061576a565b33610bed610ee2565b6001600160a01b031614610c135760405162461bcd60e51b815260040161069f9061587c565b8015610c8f57600654604051630867377160e41b8152600481018390526001600160a01b0390911690638673771090602401600060405180830381600087803b158015610c5f57600080fd5b505af1158015610c73573d6000803e3d6000fd5b5050600154610c8f92506001600160a01b03169050838361239e565b816001600160a01b03167fb78dfa45a5ff63131f1605e70c83cda5d70122e260919864eeee2ae01e3e459f3383604051610cca9291906158b1565b60405180910390a25050565b60c95460ff1615610cf95760405162461bcd60e51b815260040161069f9061576a565b8080610d1857604051638acc6d7f60e01b815260040160405180910390fd5b6001600160a01b038516610d615760405162461bcd60e51b815260206004820152601060248201526f1bdddb995c881b5d5cdd08195e1a5cdd60821b604482015260640161069f565b610d6b8484611d41565b6000610d7a6005878787611e02565b9050610d898186866000611e6d565b6000831215610e6d576001600160a01b0386163314801590610e2b5750600b546040516351c4bc1f60e11b81526001600160a01b0388811660048301523360248301529091169063a389783e9060440160206040518083038186803b158015610df157600080fd5b505afa158015610e05573d6000803e3d6000fd5b505050506040513d601f19601f82011682018060405250810190610e2991906158ca565b155b15610e4957604051637da45ce760e01b815260040160405180910390fd5b610e538184612381565b610e5e8186866125f4565b610e688684612657565b610e81565b610e778184612381565b610e813384612657565b600081600701819055508360020b8560020b876001600160a01b03167fb03167f652b0212a10b1fa6f465ac62b22ae4d9ed7bb3872668e32e18374fe7f8460010154604051610ed291815260200190565b60405180910390a4505050505050565b6097546001600160a01b031690565b610f4b60405180610120016040528060001515815260200160006001600160801b03168152602001600081526020016000815260200160008152602001600081526020016000815260200160008152602001600081525090565b6000610f5a6005868686611e02565b9050610f698185856000611e6d565b6040805161012081018252825460ff811615158252610100908190046001600160801b031660208301526001840154928201929092526002830154606082015260038301546080820152600483015460a0820152600583015460c0820152600683015460e082015260079092015490820152949350505050565b33610fec610ee2565b6001600160a01b0316146110125760405162461bcd60e51b815260040161069f9061587c565b6312cc030081111580156110285750610e108110155b6110645760405162461bcd60e51b815260206004820152600d60248201526c3637b7b5903130b1b59027a7a160991b604482015260640161069f565b60078190556040518181527f1615a39c548a63ced5cc405350ce2e18f4f50ce7d4aedb4bfb95b7e4a821a8c0906020015b60405180910390a150565b60c95460ff16156110c35760405162461bcd60e51b815260040161069f9061576a565b6110cb6127b1565b60035411156110ed576040516301730b8160e11b815260040160405180910390fd5b6110f78282611d41565b60006111066005858585611e02565b90506111158184846000611e6d565b6004808201546005830154600254600354600c546040516325f258dd60e01b81526000966111b696959493926001600160a01b0316916325f258dd9161115f9186918691016158e7565b602060405180830381600087803b15801561117957600080fd5b505af115801561118d573d6000803e3d6000fd5b505050506040513d601f19601f820116820180604052508101906111b191906157c7565b6127bc565b90506111df82600401546111c9906157aa565b83600501546111d7906157aa565b849190612828565b6111e98282612381565b6111f282612869565b600482015460058301546001808501546040805194855260208501939093528383015260608301849052608083015251600285810b929087900b916001600160a01b038916917fff97113cd10dcbc081f3b98ad5301c1ec302cc8c06a15af6db6d1188fec6f5eb919081900360a00190a45050505050565b33611273610ee2565b6001600160a01b0316146112995760405162461bcd60e51b815260040161069f9061587c565b8051600d9081556020820151600e55604080830151600f556060830151601055608083015160115560a083015160125560c083015160135560e08301516014556101008301516015556101208301516016556101408301516017556101608301516018556101808301516019556101a0830151601a556101c0830151601b556101e0830151601c55610200830151601d55610220830151601e55517f96fef58d97876707a1bd5650c97ca391d5558a8c30e1c96363c89486cb9aa8c291611095918154815260018201546020820152600282015460408201526003820154606082015260048201546080820152600582015460a0820152600682015460c0820152600782015460e082015260088201546101008201526009820154610120820152600a820154610140820152600b820154610160820152600c820154610180820152600d8201546101a0820152600e8201546101c0820152600f8201546101e082015260108201546102008201526011909101546102208201526102400190565b600061142860c95460ff1690565b156114455760405162461bcd60e51b815260040161069f9061576a565b6006546001600160a01b0316331461147057604051633dec6c6960e11b815260040160405180910390fd5b81516020830151604084015160009261148b92600592611e02565b90506114a281846020015185604001516001611e6d565b60608301516114b290829061208a565b60008360600151600f0b13156114d8576114d581846020015185604001516128ba565b91505b600060078201556040838101516020808601518651855494516101009095046001600160801b03168552600293840b949190930b926001600160a01b0316917f274018095676221177479e7105aac88c0c28eda87444ae97f6c1dbb18d88bee8910160405180910390a450919050565b600061155660c95460ff1690565b156115735760405162461bcd60e51b815260040161069f9061576a565b6006546001600160a01b0316331461159e57604051633dec6c6960e11b815260040160405180910390fd5b60006115ad60058a8a8a611e02565b90506115bc8189896000611e6d565b60008082600501541380156115d15750600086125b806115eb5750600082600501541280156115eb5750600086135b9050841561160f5761160f6115ff86612313565b611608906157aa565b8390612381565b61161a828888612828565b61162f61162a838b8b60006128f5565b612313565b9250816001015483138015611642575080155b1561170f57600654604080516320283ddb60e21b815290516000926001600160a01b0316916380a0f76c916004808301926060929190829003018186803b15801561168c57600080fd5b505afa1580156116a0573d6000803e3d6000fd5b505050506040513d601f19601f820116820180604052508101906116c491906158f5565b60208101516040516343f2832160e01b81526004810187905260029190910b6024820152604481018a9052606481018990526084810188905260a4810187905290915060c40161069f565b6000600783015560048201546005830154600184015460408051938452602084019290925290820152600289810b91908b900b906001600160a01b038d16907f220110972bc632980e610085f258dbc7651b4bb004bac9496699073f0ef331a69060600160405180910390a45050979650505050505050565b33611791610ee2565b6001600160a01b0316146117b75760405162461bcd60e51b815260040161069f9061587c565b621275008111156117fe5760405162461bcd60e51b815260206004820152601160248201527031b0b1b4329036b0bc1030b3b29027a7a160791b604482015260640161069f565b600a8190556040518181527f03f78e38097f23422a330825158a9cf778080b032c154a45063464b46a328f9590602001611095565b3361183c610ee2565b6001600160a01b0316146118625760405162461bcd60e51b815260040161069f9061587c565b600680546001600160a01b0319166001600160a01b0383169081179091556040517f8bd432982306c1f9ddd987c98d3842200f8aa7668b030cbdea0a45fd31f5d69c90600090a250565b6000600a54600954426118bf919061596c565b11156118d2576118cd612ca9565b905090565b5060085490565b6000600a54600954426118ec919061596c565b11156118d2576118d2612d43565b33611903610ee2565b6001600160a01b0316146119295760405162461bcd60e51b815260040161069f9061587c565b670429d069189e00008111156119795760405162461bcd60e51b81526020600482015260156024820152743634b8bab4b230ba37b9103932bbb0b9321027a7a160591b604482015260640161069f565b60008190556040518181527f7c1f79218de766d3f02f194836ae0d52b5b8a3fb34f3d76795d9fe9050fc2ea990602001611095565b606454610100900460ff166119c95760645460ff16156119cd565b303b155b611a305760405162461bcd60e51b815260206004820152602e60248201527f496e697469616c697a61626c653a20636f6e747261637420697320616c72656160448201526d191e481a5b9a5d1a585b1a5e995960921b606482015260840161069f565b606454610100900460ff16158015611a52576064805461ffff19166101011790555b6001600160a01b038516611a8d5760405162461bcd60e51b8152602060048201526002602482015261155560f21b604482015260640161069f565b6001600160a01b038416611ac85760405162461bcd60e51b8152602060048201526002602482015261524f60f01b604482015260640161069f565b82611afa5760405162461bcd60e51b8152602060048201526002602482015261545360f01b604482015260640161069f565b81611b2c5760405162461bcd60e51b8152602060048201526002602482015261544560f01b604482015260640161069f565b828211611b645760405162461bcd60e51b815260206004820152600660248201526554453c3d545360d01b604482015260640161069f565b600180546001600160a01b038088166001600160a01b03199283161790925560028590556003849055600c805492871692821692909217909155600b805490911633179055611bb1612d54565b611bb9612d8b565b611bc1612dc2565b8015611bd3576064805461ff00191690555b5050505050565b60c95460ff1615611bfd5760405162461bcd60e51b815260040161069f9061576a565b6004546001600160a01b03163314611c2857604051635d8a367560e01b815260040160405180910390fd5b600154610b09906001600160a01b0316838361239e565b600080611c4f6005878787611e02565b9050611c5e8186866000611e6d565b611c6a818686866128f5565b9150505b949350505050565b33611c7f610ee2565b6001600160a01b031614611ca55760405162461bcd60e51b815260040161069f9061587c565b6001600160a01b038116611d0a5760405162461bcd60e51b815260206004820152602660248201527f4f776e61626c653a206e6577206f776e657220697320746865207a65726f206160448201526564647265737360d01b606482015260840161069f565b610a50816125a2565b3b151590565b60008169124bc0ddd92e56000000611d2f6127b1565b611d399190615983565b101592915050565b8060020b8260020b12611d7c5760405162461bcd60e51b8152602060048201526003602482015262544c5560e81b604482015260640161069f565b62010deb19600283900b1215611dba5760405162461bcd60e51b8152602060048201526003602482015262544c4d60e81b604482015260640161069f565b611dc762010deb1961599b565b60020b8160020b1315610b095760405162461bcd60e51b815260206004820152600360248201526254554d60e81b604482015260640161069f565b6000611e0e8383611d41565b6040516001600160601b0319606086901b16602082015260e884811b603483015283901b60378201528590600090603a016040516020818303038152906040528051906020012081526020019081526020016000209050949350505050565b835461010090046001600160801b031615611f9457600654604051631e47919f60e11b8152600285810b600483015284900b6024820152600091829182916001600160a01b031690633c8f233e9060440160606040518083038186803b158015611ed657600080fd5b505afa158015611eea573d6000803e3d6000fd5b505050506040513d601f19601f82011682018060405250810190611f0e91906159b5565b91945092509050600080611f23898686612df9565b90925090506000611f348a85612ede565b9050611f57611f446001856159e3565b611f4f6001856159e3565b8c9190612828565b60028a0186905560038a01859055611f846001611f7383612313565b611f7d91906159e3565b8b90612381565b50505060068701555061203c9050565b801561203c57600654604051631e47919f60e11b8152600285810b600483015284900b6024820152600091829182916001600160a01b031690633c8f233e9060440160606040518083038186803b158015611fee57600080fd5b505afa158015612002573d6000803e3d6000fd5b505050506040513d601f19601f8201168201806040525081019061202691906159b5565b60028a0192909255600389015560068801555050505b50505050565b600080600061205761162a87878760016128f5565b60019690960154861396945050505050565b60006109838383612f6a565b600061098383670de0b6b3a76400008461302d565b6040805161012081018252835460ff8116151582526001600160801b03610100918290041660208301526001850154928201929092526002840154606082015260038401546080820152600484015460a0820152600584015460c0820152600684015460e0820152600784015491810191909152600f82900b61214e57600081602001516001600160801b0316116121495760405162461bcd60e51b815260206004820152600260248201526104e560f41b604482015260640161069f565b505050565b61215c8160200151836130f5565b83546001600160801b039190911661010002610100600160881b0319909116178355505050565b600061218f8383611d41565b600585015415611c6e57600080600080886005015412905060006040518060a00160405280896001600160a01b031681526020018a600501548152602001836121ef576121ea60016c1fa71f3f5f68a90479ee3f8fec615a22565b612206565b6122066b0816769404766de590afe04e6001615a4a565b6001600160a01b03908116825260028a810b6020808501919091528a820b60409485015260065484516333bac73760e11b815286518516600482015291860151602483015293850151831660448201526060850151820b6064820152608085015190910b608482015292935016906367758e6e9060a40160a060405180830381600087803b15801561229757600080fd5b505af11580156122ab573d6000803e3d6000fd5b505050506040513d601f19601f820116820180604052508101906122cf9190615a75565b509197509195509093505082156122fc576122fc6122ec84612313565b6122f5906157aa565b8a90612381565b612307898587612828565b50505050949350505050565b60006001600160ff1b0382111561237d5760405162461bcd60e51b815260206004820152602860248201527f53616665436173743a2076616c756520646f65736e27742066697420696e2061604482015267371034b73a191a9b60c11b606482015260840161069f565b5090565b808260010160008282546123959190615ab5565b90915550505050565b600060405163a9059cbb60e01b81526001600160a01b03841660048201528260248201526000806044836000895af19150506123d981613123565b61203c5760405162461bcd60e51b815260206004820152600f60248201526e1514905394d1915497d19052531151608a1b604482015260640161069f565b600080516020615cd7833981519152546001600160a01b031690565b3361243c610ee2565b6001600160a01b031614610a505760405162461bcd60e51b815260040161069f9061587c565b600061246c612417565b90506124778461316a565b6000835111806124845750815b156124955761249384846131fd565b505b7f4910fdfa16fed3260ed0e7147f7cc6da11a60208b5b9406d12a635614ffd9143805460ff16611bd357805460ff191660011781556040516125109086906124e1908590602401615308565b60408051601f198184030181529190526020810180516001600160e01b0316631b2ce7f360e11b1790526131fd565b50805460ff19168155612521612417565b6001600160a01b0316826001600160a01b0316146125995760405162461bcd60e51b815260206004820152602f60248201527f45524331393637557067726164653a207570677261646520627265616b73206660448201526e75727468657220757067726164657360881b606482015260840161069f565b611bd3856132e8565b609780546001600160a01b038381166001600160a01b0319831681179093556040519116919082907f8be0079c531659141344cd1fd0a4f28419497f9722a3daafe3b4186f6b6457e090600090a35050565b6003546125ff6127b1565b1061264c57825460ff166126265760405163169b07f760e21b815260040160405180910390fd5b60008360010154121561214957604051630a5f871f60e21b815260040160405180910390fd5b61203c8383836128ba565b600081131561267857600154610b09906001600160a01b0316833084613328565b6001546040516370a0823160e01b81526000916001600160a01b0316906370a08231906126a9903090600401615308565b60206040518083038186803b1580156126c157600080fd5b505afa1580156126d5573d6000803e3d6000fd5b505050506040513d601f19601f820116820180604052508101906126f991906157c7565b905060008290038181111561279a57811561273257612718828261596c565b600154909150612732906001600160a01b0316858461239e565b600480546040516318399f4d60e31b81526001600160a01b039091169163c1ccfa68916127639188918691016158b1565b600060405180830381600087803b15801561277d57600080fd5b505af1158015612791573d6000803e3d6000fd5b5050505061203c565b60015461203c906001600160a01b0316858361239e565b60006118cd426133b5565b6000806127c887613402565b905060006127d587613402565b905060006127ef6127e86001898961347f565b8490613540565b905060006127fd8387613540565b9050600061280b8284615ab5565b9050670de0b6b3a764000081055b9b9a5050505050505050505050565b8181171561214957818360040160008282546128449190615ab5565b925050819055508083600501600082825461285f9190615ab5565b9091555050505050565b805460ff16156128ad5760405162461bcd60e51b815260206004820152600f60248201526e185b1c9958591e481cd95d1d1b1959608a1b604482015260640161069f565b805460ff19166001179055565b60006128cc61162a85858560006128f5565b90508084600101541361098357604051631ad3ffc960e21b81526004810182905260240161069f565b60006129018484611d41565b600654604080516320283ddb60e21b815290516000926001600160a01b0316916380a0f76c916004808301926060929190829003018186803b15801561294657600080fd5b505afa15801561295a573d6000803e3d6000fd5b505050506040513d601f19601f8201168201806040525081019061297e91906158f5565b80516020820151600c546002546003546040516325f258dd60e01b8152959650939492936000936001600160a01b03909316926325f258dd926129c59290916004016158e7565b602060405180830381600087803b1580156129df57600080fd5b505af11580156129f3573d6000803e3d6000fd5b505050506040513d601f19601f82011682018060405250810190612a1791906157c7565b895490915061010090046001600160801b031615612c8a57612a846040518060e00160405280600060020b8152602001600081526020016000815260200160006001600160a01b03168152602001600081526020016000815260200160006001600160a01b031681525090565b8860020b8360020b12612aaa578760020b8360020b12612aa45787612aac565b82612aac565b885b600290810b825260009081908a810b9086900b1215612aea5782518c54612ae491908c9061010090046001600160801b031687613605565b90925090505b808c60050154612afa9190615ab5565b602084015260048c0154612b0f908390615ab5565b604084015260028b810b9086900b1315612b4c5782518c54612b4291908d9061010090046001600160801b031687613605565b9092509050612b53565b5060009050805b808c60050154612b639190615ab5565b608084015260048c0154612b78908390615ab5565b60a08401526000612b888c6136b1565b90506000612b958c6136b1565b9050816001600160a01b0316886001600160a01b031610612bb65781612bb8565b875b9150806001600160a01b0316886001600160a01b031611612bd95780612bdb565b875b90506000856020015113612bef5781612bf1565b805b6001600160a01b031660608601526080850151600012612c115781612c13565b805b6001600160a01b031660c0860152604085015160208601516060870151600092612c409290918f90613abb565b90506000612c5c8760a0015188608001518f8a60c00151613abb565b905080821115612c7857509950611c6e98505050505050505050565b9a50611c6e9950505050505050505050565b612c9e89600401548a600501548886613abb565b945050505050611c6e565b60008060075442612cba919061596c565b600c546040516393556dbd60e01b81529192506001600160a01b0316906393556dbd90612ced90849042906004016158e7565b60206040518083038186803b158015612d0557600080fd5b505afa158015612d19573d6000803e3d6000fd5b505050506040513d601f19601f82011682018060405250810190612d3d91906157c7565b91505090565b612d4b612ca9565b60085542600955565b606454610100900460ff16612d7b5760405162461bcd60e51b815260040161069f90615af6565b612d83613aef565b610bbf613b16565b606454610100900460ff16612db25760405162461bcd60e51b815260040161069f90615af6565b612dba613aef565b610bbf613b46565b606454610100900460ff16612de95760405162461bcd60e51b815260040161069f90615af6565b612df1613aef565b610bbf613aef565b6040805161012081018252845460ff8116151582526001600160801b036101009182900416602083015260018601549282019290925260028501546060820181905260038601546080830152600486015460a0830152600586015460c0830152600686015460e08301526007860154928201929092526000918291908290612e8190876159e3565b9050612e9f8183602001516001600160801b0316600160801b613b79565b93506000826080015186612eb391906159e3565b9050612ed18184602001516001600160801b0316600160801b613b79565b9350505050935093915050565b6040805161012081018252835460ff8116151582526001600160801b036101009182900416602083018190526001860154938301939093526002850154606083015260038501546080830152600485015460a0830152600585015460c0830152600685015460e08301819052600786015491830191909152600092611c6e91850390600160801b613bad565b60008080600019848609848602925082811083820303915050670de0b6b3a76400008110612fae5760405163698d9a0160e11b81526004810182905260240161069f565b600080670de0b6b3a76400008688099150506706f05b59d3b1ffff811182612fe85780670de0b6b3a7640000850401945050505050613027565b620400008285030493909111909103600160ee1b02919091177faccb18165bd6fe31ae1cf318dc5b51eee0e1ba569b88cd74c1773b91fac10669020190505b92915050565b6000808060001985870985870292508281108382030391505080600014156130685783828161305e5761305e615b41565b0492505050610983565b83811061308c578084604051631dcf306360e21b815260040161069f9291906158e7565b60008486880960026001871981018816978890046003810283188082028403028082028403028082028403028082028403028082028403029081029092039091026000889003889004909101858311909403939093029303949094049190911702949350505050565b60008082600f0b12156131195760008290036131118185615b57565b915050613027565b6109838284615b77565b60003d8261313557806000803e806000fd5b806020811461314d57801561315e5760009250613163565b816000803e60005115159250613163565b600192505b5050919050565b803b6131ce5760405162461bcd60e51b815260206004820152602d60248201527f455243313936373a206e657720696d706c656d656e746174696f6e206973206e60448201526c1bdd08184818dbdb9d1c9858dd609a1b606482015260840161069f565b600080516020615cd783398151915280546001600160a01b0319166001600160a01b0392909216919091179055565b6060823b61325c5760405162461bcd60e51b815260206004820152602660248201527f416464726573733a2064656c65676174652063616c6c20746f206e6f6e2d636f6044820152651b9d1c9858dd60d21b606482015260840161069f565b600080846001600160a01b0316846040516132779190615bc5565b600060405180830381855af49150503d80600081146132b2576040519150601f19603f3d011682016040523d82523d6000602084013e6132b7565b606091505b50915091506132df8282604051806060016040528060278152602001615cf760279139613c3c565b95945050505050565b6132f18161316a565b6040516001600160a01b038216907fbc7cd75a20ee27fd9adebab32041f755214dbc6bffa90cc0225b39da2e5c2d3b90600090a250565b60006040516323b872dd60e01b81526001600160a01b03851660048201526001600160a01b038416602482015282604482015260008060648360008a5af191505061337281613123565b611bd35760405162461bcd60e51b81526020600482015260146024820152731514905394d1915497d19493d357d1905253115160621b604482015260640161069f565b60007812725dd1d243aba0e75fe645cc4873f9e65afe688c928e1f218211156133f457604051633492ffd960e01b81526004810183905260240161069f565b50670de0b6b3a76400000290565b60007809392ee8e921d5d073aff322e62439fcf32d7f344649470f8f198212156134425760405163e608e18b60e01b81526004810183905260240161069f565b7809392ee8e921d5d073aff322e62439fcf32d7f344649470f908213156133f4576040516371f72a3160e01b81526004810183905260240161069f565b60008282116134a05760405162461bcd60e51b815260040161069f90615be1565b60006134aa6127b1565b9050838110156134e45760405162461bcd60e51b8152602060048201526005602482015264422e543c5360d81b604482015260640161069f565b600085806134f25750838210155b1561350857613501858561596c565b9050613515565b613512858361596c565b90505b600061352082613c75565b90506135358168056bc75e2d63100000612075565b979650505050505050565b6000600160ff1b8314806135575750600160ff1b82145b1561357557604051630d01a11b60e21b815260040160405180910390fd5b60008060008512613586578461358b565b846000035b91506000841261359b57836135a0565b836000035b905060006135ae8383612f6a565b90506001600160ff1b038111156135db5760405163bf79e8d960e01b81526004810182905260240161069f565b6000198087139086138082186001146135f457826135f9565b826000035b98975050505050505050565b6000808460020b8660020b1415613621575060009050806136a8565b600061362c876136b1565b90506000613639876136b1565b9050600061366383838a60020b8c60020b126136555789613c8c565b61365e8a6157e0565b613c8c565b9050600061368d84848b60020b8d60020b12613687576136828b6157e0565b613cd3565b8a613cd3565b90506136a0828289600254600354613d07565b955093505050505b94509492505050565b60008060008360020b126136c8578260020b6136d5565b8260020b6136d5906157aa565b90506136e462010deb1961599b565b60020b81111561371a5760405162461bcd60e51b81526020600482015260016024820152601560fa1b604482015260640161069f565b60006001821661372e57600160801b613740565b6ffffcb933bd6fad37aa2d162d1a5940015b6001600160881b031690506002821615613775576080613770826ffff97272373d413259a46990580e213a615bff565b901c90505b600482161561379f57608061379a826ffff2e50f5f656932ef12357cf3c7fdcc615bff565b901c90505b60088216156137c95760806137c4826fffe5caca7e10e4e61c3624eaa0941cd0615bff565b901c90505b60108216156137f35760806137ee826fffcb9843d60f6159c9db58835c926644615bff565b901c90505b602082161561381d576080613818826fff973b41fa98c081472e6896dfb254c0615bff565b901c90505b6040821615613847576080613842826fff2ea16466c96a3843ec78b326b52861615bff565b901c90505b608082161561387157608061386c826ffe5dee046a99a2a811c461f1969c3053615bff565b901c90505b61010082161561389c576080613897826ffcbe86c7900a88aedcffc83b479aa3a4615bff565b901c90505b6102008216156138c75760806138c2826ff987a7253ac413176f2b074cf7815e54615bff565b901c90505b6104008216156138f25760806138ed826ff3392b0822b70005940c7a398e4b70f3615bff565b901c90505b61080082161561391d576080613918826fe7159475a2c29b7443b29c7fa6e889d9615bff565b901c90505b611000821615613948576080613943826fd097f3bdfd2022b8845ad8f792aa5825615bff565b901c90505b61200082161561397357608061396e826fa9f746462d870fdf8a65dc1f90e061e5615bff565b901c90505b61400082161561399e576080613999826f70d869a156d2a1b890bb3df62baf32f7615bff565b901c90505b6180008216156139c95760806139c4826f31be135f97d08fd981231505542fcfa6615bff565b901c90505b620100008216156139f55760806139f0826f09aa508b5b7a84e1c677de54f3e99bc9615bff565b901c90505b62020000821615613a20576080613a1b826e5d6af8dedb81196699c329225ee604615bff565b901c90505b62040000821615613a4a576080613a45826d2216e584f5fa1ea926041bedfe98615bff565b901c90505b62080000821615613a72576080613a6d826b048a170391f7dc42444e8fa2615bff565b901c90505b60008460020b1315613a8d57613a8a81600019615c1e565b90505b613a9b600160201b82615c32565b15613aa7576001613aaa565b60005b611c6e9060ff16602083901c615983565b6000613ac8858585613d93565b90506000613ad886868686613f1b565b905080821015613ae6578091505b50949350505050565b606454610100900460ff16610bbf5760405162461bcd60e51b815260040161069f90615af6565b606454610100900460ff16613b3d5760405162461bcd60e51b815260040161069f90615af6565b610bbf336125a2565b606454610100900460ff16613b6d5760405162461bcd60e51b815260040161069f90615af6565b60c9805460ff19169055565b600080841215613ba657613b96613b8f856157aa565b8484613bad565b613b9f906157aa565b9050610983565b611c6e8484845b600080806000198587098587029250828110838203039150508060001415613c1d5760008411613c125760405162461bcd60e51b815260206004820152601060248201526f4469766973696f6e206279207a65726f60801b604482015260640161069f565b508290049050610983565b80841161308c5760405162461bcd60e51b815260040161069f90615c46565b60608315613c4b575081610983565b825115613c5b5782518084602001fd5b8160405162461bcd60e51b815260040161069f9190615c68565b6000613027826a1a1601fc4ea7109e000000612075565b60008082600f0b12613cb257613cad613ca885858560016140c7565b6141c3565b611c6e565b613cca613ca88585613cc3866157e0565b60006140c7565b611c6e906157aa565b60008082600f0b12613cef57613cad613ca8858585600161420f565b613cca613ca88585613d00866157e0565b600061420f565b6000828211613d285760405162461bcd60e51b815260040161069f90615be1565b85158015613d34575084155b15613d41575060006132df565b6000613d4c87613402565b90506000613d5987613402565b90506000613d6a838389898961427f565b90506000613d7a848389896142c0565b670de0b6b3a764000090059a9950505050505050505050565b6000808412158015613da6575060008312155b15613db357506000610983565b6000613dbe85613402565b90506000613dcb85613402565b90506000600254600354613ddf919061596c565b90506000613dff84613dfa61162a600160025460035461347f565b613540565b90506000613ecf84613dfa61162a86600354613e196127b1565b60008f128e613e266118d9565b6040805161024081018252600d548152600e546020820152600f54918101919091526010546060820152601154608082015260125460a082015260135460c082015260145460e0820152601554610100820152601654610120820152601754610140820152601854610160820152601954610180820152601a546101a0820152601b546101c0820152601c546101e0820152601d54610200820152601e54610220820152614301565b90506000613edd8284615ab5565b90506000811215613f0957613f02613ef4826157aa565b670de0b6b3a7640000900490565b9650613f0e565b600096505b5050505050509392505050565b600083613f2a57506000611c6e565b600080600080600080891315613f7e5760008a1315613f5157600095505050505050611c6e565b8715613f67576015546019549094509250613f73565b601754601b5490945092505b508790506001613fb0565b8715613f9457601654601a549094509250613fa0565b601854601c5490945092505b613fa9896157aa565b9150600090505b613fd161162a83898787600354613fc56127b1565b601454601d548a614358565b9450600061408982613feb57613fe6876157aa565b613fed565b865b613ff68c6157aa565b600c546002546003546040516325f258dd60e01b81526001600160a01b03909316926325f258dd9261402c9290916004016158e7565b602060405180830381600087803b15801561404657600080fd5b505af115801561405a573d6000803e3d6000fd5b505050506040513d601f19601f8201168201806040525081019061407e91906157c7565b600254600354613d07565b90506000614097828d615ab5565b90506140a58160008c613d93565b601e549098508810156140b857601e5497505b50505050505050949350505050565b6000836001600160a01b0316856001600160a01b031611156140e7579293925b600160601b600160e01b03606084901b1660006141048787615a22565b6001600160a01b031690506000876001600160a01b0316116141615760405162461bcd60e51b8152602060048201526016602482015275073717274207072696365206d757374206265203e20360541b604482015260640161069f565b8361419757866001600160a01b03166141848383896001600160a01b0316613bad565b8161419157614191615b41565b04613535565b6135356141ae8383896001600160a01b031661451a565b886001600160a01b0316808204910615150190565b6000600160ff1b821061237d5760405162461bcd60e51b815260206004820152601460248201527337bb32b9333637bb9034b7103a37a4b73a191a9b60611b604482015260640161069f565b6000836001600160a01b0316856001600160a01b0316111561422f579293925b8161425c57614257836001600160801b03168686036001600160a01b0316600160601b613bad565b6132df565b6132df836001600160801b03168686036001600160a01b0316600160601b61451a565b60008060008061429b6142946000888861347f565b8a90613540565b92506142a78888613540565b91506142b38284615ab5565b9998505050505050505050565b60008282116142e15760405162461bcd60e51b815260040161069f90615be1565b6142f76142f06001858561347f565b859061456d565b6132df90866159e3565b60008061430d89613c75565b9050614326816143208a8a888b89614633565b90612069565b91508461434c576143498661433f578360200151614342565b83515b8390612069565b91505b50979650505050505050565b60006143a96040518061012001604052806000815260200160008152602001600081526020016000815260200160008152602001600081526020016000815260200160008152602001600081525090565b6143c9670de0b6b3a76400008b6001600160a01b0316600160601b613bad565b8082526143e9906143da9080612069565b670de0b6b3a764000090612075565b602082018190526143fa908a612069565b6040820181905288111561441057604081018890525b6144248561441e888a61596c565b90612075565b606082015261445161443585612313565b61443e906157aa565b61444b8360600151612313565b90613540565b60808201819052614461906147fd565b61447390670de0b6b3a76400006159e3565b60a08201819052614492906144879061486d565b604083015190612069565b60c082015282156144d7578060c00151816020015111156144cb578060c0015181602001516144c1919061596c565b60e08201526144f1565b600060e08201526144f1565b8060c0015181602001516144eb9190615983565b60e08201525b6145028160e001516143208d6133b5565b6101008201819052670de0b6b3a76400009004612819565b6000614527848484613bad565b90506000828061453957614539615b41565b84860911156109835760001981106145635760405162461bcd60e51b815260040161069f90615c46565b806132df81615c9b565b6000600160ff1b8314806145845750600160ff1b82145b156145a25760405163b3c754a360e01b815260040160405180910390fd5b600080600085126145b357846145b8565b846000035b9150600084126145c857836145cd565b836000035b905060006145e483670de0b6b3a76400008461302d565b90506001600160ff1b0381111561461157604051637cb4bef560e01b81526004810182905260240161069f565b60001980871390861380821860011461462a57826135f9565b6135f9836157aa565b60006146846040518061012001604052806000815260200160008152602001600081526020016000815260200160008152602001600081526020016000815260200160008152602001600081525090565b60808301516060840151600291821b911b6146a08989876148bf565b8084526146b590670de0b6b3a76400006159e3565b602084015260408501516146ca90829061456d565b8360400181815250506146f8826146f28560200151886040015161354090919063ffffffff16565b9061456d565b6060840152825161471090889061444b908590613540565b60808401526020830151604086015161472891613540565b60a08401819052608084015161473d9161456d565b60c0840181905260408401516001916147589190831b615ab5565b901b60e084015261478486614771578560c00151614777565b8560a001515b61444b8560e0015161498f565b61010084015260006147d8876147a8578461010001516147a3906157aa565b6147af565b8461010001515b8560c0015186604001516147c39190615ab5565b6147cd9190615ab5565b606086015190613540565b905060008112156147ec57600094506147f0565b8094505b5050505095945050505050565b600068023f2fa8f6da5b9d311982121561481957506000919050565b680736ea4425c11ac6318212614845576040516399bb754160e01b81526004810183905260240161069f565b6714057b7ef767814f8202610983670de0b6b3a76400006706f05b59d3b20000830105614a05565b60008082121561237d5760405162461bcd60e51b815260206004820181905260248201527f53616665436173743a2076616c7565206d75737420626520706f736974697665604482015260640161069f565b6000838311156149115760405162461bcd60e51b815260206004820152601e60248201527f656e6454696d65206d757374206265203e3d2063757272656e7454696d650000604482015260640161069f565b6080820151806149585760405162461bcd60e51b81526020600482015260126024820152711c185c985b595d195c9cc81b9bdd081cd95d60721b604482015260640161069f565b60e0830151600061496d826146f2888a6159e3565b9050600061498461497d856157aa565b8390613540565b90506135f9816147fd565b6000808212156149b55760405163608c83ff60e11b81526004810183905260240161069f565b7809392ee8e921d5d073aff322e62439fcf32d7f344649470f908213156149f257604051632c482c3960e01b81526004810183905260240161069f565b613027670de0b6b3a76400008302614a9c565b600080821215614a585768033dd1780914b9711419821215614a2957506000919050565b614a3582600003614a05565b6a0c097ce7bc90715b34b9f160241b81614a5157614a51615b41565b0592915050565b680a688906bd8b0000008212614a845760405163e69458f960e01b81526004810183905260240161069f565b670de0b6b3a7640000604083901b0461098381614c07565b600081614aab57506000919050565b50600181600160801b8110614ac55760409190911b9060801c5b600160401b8110614adb5760209190911b9060401c5b600160201b8110614af15760109190911b9060201c5b620100008110614b065760089190911b9060101c5b6101008110614b1a5760049190911b9060081c5b60108110614b2d5760029190911b9060041c5b60088110614b3d57600182901b91505b6001828481614b4e57614b4e615b41565b048301901c91506001828481614b6657614b66615b41565b048301901c91506001828481614b7e57614b7e615b41565b048301901c91506001828481614b9657614b96615b41565b048301901c91506001828481614bae57614bae615b41565b048301901c91506001828481614bc657614bc6615b41565b048301901c91506001828481614bde57614bde615b41565b048301901c91506000828481614bf657614bf6615b41565b049050808310156109835782611c6e565b600160bf1b6001603f1b821615614c275768016a09e667f3bcc9090260401c5b6001603e1b821615614c42576801306fe0a31b7152df0260401c5b6001603d1b821615614c5d576801172b83c7d517adce0260401c5b6001603c1b821615614c785768010b5586cf9890f62a0260401c5b6001603b1b821615614c93576801059b0d31585743ae0260401c5b6001603a1b821615614cae57680102c9a3e778060ee70260401c5b600160391b821615614cc95768010163da9fb33356d80260401c5b600160381b821615614ce457680100b1afa5abcbed610260401c5b600160371b821615614cff5768010058c86da1c09ea20260401c5b600160361b821615614d1a576801002c605e2e8cec500260401c5b600160351b821615614d3557680100162f3904051fa10260401c5b600160341b821615614d50576801000b175effdc76ba0260401c5b600160331b821615614d6b57680100058ba01fb9f96d0260401c5b600160321b821615614d865768010002c5cc37da94920260401c5b600160311b821615614da1576801000162e525ee05470260401c5b600160301b821615614dbc5768010000b17255775c040260401c5b6001602f1b821615614dd7576801000058b91b5bc9ae0260401c5b6001602e1b821615614df257680100002c5c89d5ec6d0260401c5b6001602d1b821615614e0d5768010000162e43f4f8310260401c5b6001602c1b821615614e2857680100000b1721bcfc9a0260401c5b6001602b1b821615614e435768010000058b90cf1e6e0260401c5b6001602a1b821615614e5e576801000002c5c863b73f0260401c5b600160291b821615614e7957680100000162e430e5a20260401c5b600160281b821615614e94576801000000b1721835510260401c5b600160271b821615614eaf57680100000058b90c0b490260401c5b600160261b821615614eca5768010000002c5c8601cc0260401c5b600160251b821615614ee5576801000000162e42fff00260401c5b600160241b821615614f005768010000000b17217fbb0260401c5b600160231b821615614f1b576801000000058b90bfce0260401c5b600160221b821615614f3657680100000002c5c85fe30260401c5b600160211b821615614f515768010000000162e42ff10260401c5b600160201b821615614f6c57680100000000b17217f80260401c5b6380000000821615614f875768010000000058b90bfc0260401c5b6340000000821615614fa2576801000000002c5c85fe0260401c5b6320000000821615614fbd57680100000000162e42ff0260401c5b6310000000821615614fd8576801000000000b17217f0260401c5b6308000000821615614ff357680100000000058b90c00260401c5b630400000082161561500e5768010000000002c5c8600260401c5b6302000000821615615029576801000000000162e4300260401c5b63010000008216156150445768010000000000b172180260401c5b6280000082161561505e576801000000000058b90c0260401c5b6240000082161561507857680100000000002c5c860260401c5b622000008216156150925768010000000000162e430260401c5b621000008216156150ac57680100000000000b17210260401c5b620800008216156150c65768010000000000058b910260401c5b620400008216156150e0576801000000000002c5c80260401c5b620200008216156150fa57680100000000000162e40260401c5b620100008216156151135761b172600160401b010260401c5b61800082161561512b576158b9600160401b010260401c5b61400082161561514357612c5d600160401b010260401c5b61200082161561515b5761162e600160401b010260401c5b61100082161561517357610b17600160401b010260401c5b61080082161561518b5761058c600160401b010260401c5b6104008216156151a3576102c6600160401b010260401c5b6102008216156151bb57610163600160401b010260401c5b6101008216156151d25760b1600160401b010260401c5b60808216156151e8576059600160401b010260401c5b60408216156151fe57602c600160401b010260401c5b6020821615615214576016600160401b010260401c5b601082161561522a57600b600160401b010260401c5b6008821615615240576006600160401b010260401c5b6004821615615256576003600160401b010260401c5b600282161561526c576001600160401b010260401c5b6001821615615282576001600160401b010260401c5b670de0b6b3a76400000260409190911c60bf031c90565b6001600160a01b0381168114610a5057600080fd5b8060020b8114610a5057600080fd5b6000806000606084860312156152d257600080fd5b83356152dd81615299565b925060208401356152ed816152ae565b915060408401356152fd816152ae565b809150509250925092565b6001600160a01b0391909116815260200190565b60006020828403121561532e57600080fd5b813561098381615299565b634e487b7160e01b600052604160045260246000fd5b60405161024081016001600160401b038111828210171561537257615372615339565b60405290565b604051601f8201601f191681016001600160401b03811182821017156153a0576153a0615339565b604052919050565b600080604083850312156153bb57600080fd5b82356153c681615299565b91506020838101356001600160401b03808211156153e357600080fd5b818601915086601f8301126153f757600080fd5b81358181111561540957615409615339565b61541b601f8201601f19168501615378565b9150808252878482850101111561543157600080fd5b80848401858401376000848284010152508093505050509250929050565b6000806040838503121561546257600080fd5b823561546d81615299565b946020939093013593505050565b6000806000806080858703121561549157600080fd5b843561549c81615299565b935060208501356154ac816152ae565b925060408501356154bc816152ae565b9396929550929360600135925050565b6000602082840312156154de57600080fd5b5035919050565b600061024082840312156154f857600080fd5b61550061534f565b823581526020808401359082015260408084013590820152606080840135908201526080808401359082015260a0808401359082015260c0808401359082015260e08084013590820152610100808401359082015261012080840135908201526101408084013590820152610160808401359082015261018080840135908201526101a080840135908201526101c080840135908201526101e080840135908201526102008084013590820152610220928301359281019290925250919050565b6000608082840312156155d357600080fd5b604051608081016001600160401b03811182821017156155f5576155f5615339565b604052823561560381615299565b81526020830135615613816152ae565b60208201526040830135615626816152ae565b60408201526060830135600f81900b811461564057600080fd5b60608201529392505050565b600080600080600080600060e0888a03121561566757600080fd5b873561567281615299565b96506020880135615682816152ae565b95506040880135615692816152ae565b969995985095966060810135965060808101359560a0820135955060c0909101359350915050565b600080600080608085870312156156d057600080fd5b84356156db81615299565b935060208501356156eb81615299565b93969395505050506040820135916060013590565b8015158114610a5057600080fd5b6000806000806080858703121561572457600080fd5b843561572f81615299565b9350602085013561573f816152ae565b9250604085013561574f816152ae565b9150606085013561575f81615700565b939692955090935050565b60208082526010908201526f14185d5cd8589b194e881c185d5cd95960821b604082015260600190565b634e487b7160e01b600052601160045260246000fd5b6000600160ff1b8214156157c0576157c0615794565b5060000390565b6000602082840312156157d957600080fd5b5051919050565b6000600f82900b60016001607f1b03198114156157ff576157ff615794565b60000392915050565b6020808252602c90820152600080516020615cb783398151915260408201526b19195b1959d85d1958d85b1b60a21b606082015260800190565b6020808252602c90820152600080516020615cb783398151915260408201526b6163746976652070726f787960a01b606082015260800190565b6020808252818101527f4f776e61626c653a2063616c6c6572206973206e6f7420746865206f776e6572604082015260600190565b6001600160a01b03929092168252602082015260400190565b6000602082840312156158dc57600080fd5b815161098381615700565b918252602082015260400190565b60006060828403121561590757600080fd5b604051606081016001600160401b038111828210171561592957615929615339565b604052825161593781615299565b81526020830151615947816152ae565b6020820152604083015160ff8116811461596057600080fd5b60408201529392505050565b60008282101561597e5761597e615794565b500390565b6000821982111561599657615996615794565b500190565b60008160020b627fffff198114156157ff576157ff615794565b6000806000606084860312156159ca57600080fd5b8351925060208401519150604084015190509250925092565b60008083128015600160ff1b850184121615615a0157615a01615794565b6001600160ff1b0384018313811615615a1c57615a1c615794565b50500390565b60006001600160a01b0383811690831681811015615a4257615a42615794565b039392505050565b60006001600160a01b03828116848216808303821115615a6c57615a6c615794565b01949350505050565b600080600080600060a08688031215615a8d57600080fd5b5050835160208501516040860151606087015160809097015192989197509594509092509050565b600080821280156001600160ff1b0384900385131615615ad757615ad7615794565b600160ff1b8390038412811615615af057615af0615794565b50500190565b6020808252602b908201527f496e697469616c697a61626c653a20636f6e7472616374206973206e6f74206960408201526a6e697469616c697a696e6760a81b606082015260800190565b634e487b7160e01b600052601260045260246000fd5b60006001600160801b0383811690831681811015615a4257615a42615794565b60006001600160801b03828116848216808303821115615a6c57615a6c615794565b60005b83811015615bb4578181015183820152602001615b9c565b8381111561203c5750506000910152565b60008251615bd7818460208701615b99565b9190910192915050565b602080825260049082015263453c3d5360e01b604082015260600190565b6000816000190483118215151615615c1957615c19615794565b500290565b600082615c2d57615c2d615b41565b500490565b600082615c4157615c41615b41565b500690565b6020808252600890820152676f766572666c6f7760c01b604082015260600190565b6020815260008251806020840152615c87816040850160208701615b99565b601f01601f19169190910160400192915050565b6000600019821415615caf57615caf615794565b506001019056fe46756e6374696f6e206d7573742062652063616c6c6564207468726f75676820360894a13ba1a3210667c828492db98dca3e2076cc3735a920a3ca505d382bbc416464726573733a206c6f772d6c6576656c2064656c65676174652063616c6c206661696c6564a264697066735822122052332f9111f0653cd6f8ed362bef359bdaf3eee9455fb318eef7b4826c12ba2064736f6c63430008090033",
  "linkReferences": {},
  "deployedLinkReferences": {}
}