{
  "_format": "hh-sol-artifact-1",
  "contractName": "Periphery",
  "sourceName": "contracts/periphery/Periphery.sol",
  "abi": [
    {
      "inputs": [],
      "name": "AavePoolGetReserveNormalizedIncomeReturnedZero",
      "type": "error"
    },
    {
      "inputs": [
        {
          "internalType": "bool",
          "name": "unlocked",
          "type": "bool"
        }
      ],
      "name": "CanOnlyTradeIfUnlocked",
      "type": "error"
    },
    {
      "inputs": [],
      "name": "CannotLiquidate",
      "type": "error"
    },
    {
      "inputs": [],
      "name": "CannotSettleBeforeMaturity",
      "type": "error"
    },
    {
      "inputs": [
        {
          "internalType": "uint256",
          "name": "x",
          "type": "uint256"
        },
        {
          "internalType": "uint256",
          "name": "y",
          "type": "uint256"
        }
      ],
      "name": "DebugError",
      "type": "error"
    },
    {
      "inputs": [
        {
          "internalType": "int256",
          "name": "amount0",
          "type": "int256"
        },
        {
          "internalType": "int256",
          "name": "amount1",
          "type": "int256"
        }
      ],
      "name": "ExpectedOppositeSigns",
      "type": "error"
    },
    {
      "inputs": [
        {
          "internalType": "uint160",
          "name": "sqrtPriceX96",
          "type": "uint160"
        }
      ],
      "name": "ExpectedSqrtPriceZeroBeforeInit",
      "type": "error"
    },
    {
      "inputs": [],
      "name": "IRSNotionalAmountSpecifiedMustBeNonZero",
      "type": "error"
    },
    {
      "inputs": [],
      "name": "InvalidMarginDelta",
      "type": "error"
    },
    {
      "inputs": [
        {
          "internalType": "uint128",
          "name": "amount",
          "type": "uint128"
        }
      ],
      "name": "LiquidityDeltaMustBePositiveInBurn",
      "type": "error"
    },
    {
      "inputs": [
        {
          "internalType": "uint128",
          "name": "amount",
          "type": "uint128"
        }
      ],
      "name": "LiquidityDeltaMustBePositiveInMint",
      "type": "error"
    },
    {
      "inputs": [
        {
          "internalType": "int256",
          "name": "marginRequirement",
          "type": "int256"
        }
      ],
      "name": "MarginLessThanMinimum",
      "type": "error"
    },
    {
      "inputs": [
        {
          "internalType": "int256",
          "name": "marginRequirement",
          "type": "int256"
        },
        {
          "internalType": "int24",
          "name": "tick",
          "type": "int24"
        },
        {
          "internalType": "int256",
          "name": "fixedTokenDelta",
          "type": "int256"
        },
        {
          "internalType": "int256",
          "name": "variableTokenDelta",
          "type": "int256"
        },
        {
          "internalType": "uint256",
          "name": "cumulativeFeeIncurred",
          "type": "uint256"
        },
        {
          "internalType": "int256",
          "name": "fixedTokenDeltaUnbalanced",
          "type": "int256"
        }
      ],
      "name": "MarginRequirementNotMet",
      "type": "error"
    },
    {
      "inputs": [
        {
          "internalType": "int256",
          "name": "marginRequirement",
          "type": "int256"
        }
      ],
      "name": "MarginRequirementNotMetFCM",
      "type": "error"
    },
    {
      "inputs": [
        {
          "internalType": "uint256",
          "name": "requested",
          "type": "uint256"
        },
        {
          "internalType": "uint256",
          "name": "available",
          "type": "uint256"
        }
      ],
      "name": "NotEnoughFunds",
      "type": "error"
    },
    {
      "inputs": [],
      "name": "OOO",
      "type": "error"
    },
    {
      "inputs": [],
      "name": "OnlyFCM",
      "type": "error"
    },
    {
      "inputs": [],
      "name": "OnlyMarginEngine",
      "type": "error"
    },
    {
      "inputs": [],
      "name": "OnlyOwnerCanUpdatePosition",
      "type": "error"
    },
    {
      "inputs": [],
      "name": "OnlyVAMM",
      "type": "error"
    },
    {
      "inputs": [],
      "name": "PositionNetZero",
      "type": "error"
    },
    {
      "inputs": [],
      "name": "PositionNotSettled",
      "type": "error"
    },
    {
      "inputs": [],
      "name": "WithdrawalExceedsCurrentMargin",
      "type": "error"
    },
    {
      "inputs": [],
      "name": "closeToOrBeyondMaturity",
      "type": "error"
    },
    {
      "inputs": [
        {
          "internalType": "contract IMarginEngine",
          "name": "marginEngine",
          "type": "address"
        }
      ],
      "name": "getCurrentTick",
      "outputs": [
        {
          "internalType": "int24",
          "name": "currentTick",
          "type": "int24"
        }
      ],
      "stateMutability": "view",
      "type": "function"
    },
    {
      "inputs": [
        {
          "components": [
            {
              "internalType": "contract IMarginEngine",
              "name": "marginEngine",
              "type": "address"
            },
            {
              "internalType": "int24",
              "name": "tickLower",
              "type": "int24"
            },
            {
              "internalType": "int24",
              "name": "tickUpper",
              "type": "int24"
            },
            {
              "internalType": "uint256",
              "name": "notional",
              "type": "uint256"
            },
            {
              "internalType": "bool",
              "name": "isMint",
              "type": "bool"
            },
            {
              "internalType": "uint256",
              "name": "marginDelta",
              "type": "uint256"
            }
          ],
          "internalType": "struct IPeriphery.MintOrBurnParams",
          "name": "params",
          "type": "tuple"
        }
      ],
      "name": "mintOrBurn",
      "outputs": [
        {
          "internalType": "int256",
          "name": "positionMarginRequirement",
          "type": "int256"
        }
      ],
      "stateMutability": "nonpayable",
      "type": "function"
    },
    {
      "inputs": [
        {
          "components": [
            {
              "internalType": "contract IMarginEngine",
              "name": "marginEngine",
              "type": "address"
            },
            {
              "internalType": "bool",
              "name": "isFT",
              "type": "bool"
            },
            {
              "internalType": "uint256",
              "name": "notional",
              "type": "uint256"
            },
            {
              "internalType": "uint160",
              "name": "sqrtPriceLimitX96",
              "type": "uint160"
            },
            {
              "internalType": "int24",
              "name": "tickLower",
              "type": "int24"
            },
            {
              "internalType": "int24",
              "name": "tickUpper",
              "type": "int24"
            },
            {
              "internalType": "uint256",
              "name": "marginDelta",
              "type": "uint256"
            }
          ],
          "internalType": "struct IPeriphery.SwapPeripheryParams",
          "name": "params",
          "type": "tuple"
        }
      ],
      "name": "swap",
      "outputs": [
        {
          "internalType": "int256",
          "name": "_fixedTokenDelta",
          "type": "int256"
        },
        {
          "internalType": "int256",
          "name": "_variableTokenDelta",
          "type": "int256"
        },
        {
          "internalType": "uint256",
          "name": "_cumulativeFeeIncurred",
          "type": "uint256"
        },
        {
          "internalType": "int256",
          "name": "_fixedTokenDeltaUnbalanced",
          "type": "int256"
        },
        {
          "internalType": "int256",
          "name": "_marginRequirement",
          "type": "int256"
        },
        {
          "internalType": "int24",
          "name": "_tickAfter",
          "type": "int24"
        }
      ],
      "stateMutability": "nonpayable",
      "type": "function"
    }
  ],
  "bytecode": "0x608060405234801561001057600080fd5b5061180d806100206000396000f3fe608060405234801561001057600080fd5b50600436106100415760003560e01c8063040a5dc11461004657806314d2348e1461007157806334907e3414610092575b600080fd5b6100596100543660046112e1565b6100d5565b60405160029190910b81526020015b60405180910390f35b61008461007f366004611326565b6101c7565b604051908152602001610068565b6100a56100a03660046113ce565b610506565b604080519687526020870195909552938501929092526060840152608083015260020b60a082015260c001610068565b600080826001600160a01b031663e098372c6040518163ffffffff1660e01b815260040160206040518083038186803b15801561011157600080fd5b505afa158015610125573d6000803e3d6000fd5b505050506040513d601f19601f820116820180604052508101906101499190611488565b9050806001600160a01b03166380a0f76c6040518163ffffffff1660e01b815260040160606040518083038186803b15801561018457600080fd5b505afa158015610198573d6000803e3d6000fd5b505050506040513d601f19601f820116820180604052508101906101bc91906114a5565b602001519392505050565b60006101db82602001518360400151610985565b600082600001516001600160a01b031663e098372c6040518163ffffffff1660e01b815260040160206040518083038186803b15801561021a57600080fd5b505afa15801561022e573d6000803e3d6000fd5b505050506040513d601f19601f820116820180604052508101906102529190611488565b90506000816001600160a01b03166380a0f76c6040518163ffffffff1660e01b815260040160606040518083038186803b15801561028f57600080fd5b505afa1580156102a3573d6000803e3d6000fd5b505050506040513d601f19601f820116820180604052508101906102c791906114a5565b805160208601519192506001600160a01b03161515906000906102e990610a4f565b905060006102fa8760400151610a4f565b9050826103925760006002886040015189602001516103199190611540565b610323919061159d565b9050600061033082610a4f565b6040516323fbaf6f60e11b81526001600160a01b038083166004830152919250908816906347f75ede90602401600060405180830381600087803b15801561037757600080fd5b505af115801561038b573d6000803e3d6000fd5b5050505050505b60a0870151156103b8576103b88760000151886020015189604001518a60a00151610e61565b60006103c983838a60600151610fff565b90506000965087608001511561046c5760208801516040808a01519051635c6651a760e11b81526001600160a01b0389169263b8cca34e92610413923392919087906004016115d7565b602060405180830381600087803b15801561042d57600080fd5b505af1158015610441573d6000803e3d6000fd5b505050506040513d601f19601f82011682018060405250810190610465919061160a565b96506104fb565b60208801516040808a01519051631f2f089360e01b81526001600160a01b03891692631f2f0893926104a6923392919087906004016115d7565b602060405180830381600087803b1580156104c057600080fd5b505af11580156104d4573d6000803e3d6000fd5b505050506040513d601f19601f820116820180604052508101906104f8919061160a565b96505b505050505050919050565b60008060008060008061052187608001518860a00151610985565b600087600001516001600160a01b031663e098372c6040518163ffffffff1660e01b815260040160206040518083038186803b15801561056057600080fd5b505afa158015610574573d6000803e3d6000fd5b505050506040513d601f19601f820116820180604052508101906105989190611488565b9050876080015160020b60001480156105b6575060a088015160020b155b15610723576000816001600160a01b031663d0c93a7c6040518163ffffffff1660e01b815260040160206040518083038186803b1580156105f657600080fd5b505afa15801561060a573d6000803e3d6000fd5b505050506040513d601f19601f8201168201806040525081019061062e9190611623565b90506000826001600160a01b03166380a0f76c6040518163ffffffff1660e01b815260040160606040518083038186803b15801561066b57600080fd5b505afa15801561067f573d6000803e3d6000fd5b505050506040513d601f19601f820116820180604052508101906106a391906114a5565b905060008282602001516106b79190611640565b905060008383602001516106cb9190611540565b905062010deb19600283900b12156106e55762010deb1991505b6106f262010deb19611688565b60020b8160020b131561070f5761070c62010deb19611688565b90505b600291820b60808d0152900b60a08b015250505b60c08801511561074957610749886000015189608001518a60a001518b60c00151610e61565b6000886020015115610769576107628960400151611052565b9050610782565b6107768960400151611052565b61077f906116ab565b90505b60006040518060a00160405280336001600160a01b031681526020018381526020018b606001516001600160a01b03166000146107c3578b60600151610801565b8b60200151156107ea576107e560016c1fa71f3f5f68a90479ee3f8fec6116c8565b610801565b6108016b0816769404766de590afe04e60016116f0565b6001600160a01b031681526020018b6080015160020b81526020018b60a0015160020b8152509050826001600160a01b03166367758e6e826040518263ffffffff1660e01b815260040161089c9190600060a08201905060018060a01b038084511683526020840151602084015280604085015116604084015250606083015160020b6060830152608083015160020b608083015292915050565b60a060405180830381600087803b1580156108b657600080fd5b505af11580156108ca573d6000803e3d6000fd5b505050506040513d601f19601f820116820180604052508101906108ee919061171b565b809950819a50829b50839c50849d505050505050826001600160a01b03166380a0f76c6040518163ffffffff1660e01b815260040160606040518083038186803b15801561093b57600080fd5b505afa15801561094f573d6000803e3d6000fd5b505050506040513d601f19601f8201168201806040525081019061097391906114a5565b60200151935050505091939550919395565b8060020b8260020b126109c55760405162461bcd60e51b8152602060048201526003602482015262544c5560e81b60448201526064015b60405180910390fd5b62010deb19600283900b1215610a035760405162461bcd60e51b8152602060048201526003602482015262544c4d60e81b60448201526064016109bc565b610a1062010deb19611688565b60020b8160020b1315610a4b5760405162461bcd60e51b815260206004820152600360248201526254554d60e81b60448201526064016109bc565b5050565b60008060008360020b12610a66578260020b610a73565b8260020b610a73906116ab565b9050610a8262010deb19611688565b60020b811115610ab85760405162461bcd60e51b81526020600482015260016024820152601560fa1b60448201526064016109bc565b600060018216610acc57600160801b610ade565b6ffffcb933bd6fad37aa2d162d1a5940015b6001600160881b031690506002821615610b13576080610b0e826ffff97272373d413259a46990580e213a61175b565b901c90505b6004821615610b3d576080610b38826ffff2e50f5f656932ef12357cf3c7fdcc61175b565b901c90505b6008821615610b67576080610b62826fffe5caca7e10e4e61c3624eaa0941cd061175b565b901c90505b6010821615610b91576080610b8c826fffcb9843d60f6159c9db58835c92664461175b565b901c90505b6020821615610bbb576080610bb6826fff973b41fa98c081472e6896dfb254c061175b565b901c90505b6040821615610be5576080610be0826fff2ea16466c96a3843ec78b326b5286161175b565b901c90505b6080821615610c0f576080610c0a826ffe5dee046a99a2a811c461f1969c305361175b565b901c90505b610100821615610c3a576080610c35826ffcbe86c7900a88aedcffc83b479aa3a461175b565b901c90505b610200821615610c65576080610c60826ff987a7253ac413176f2b074cf7815e5461175b565b901c90505b610400821615610c90576080610c8b826ff3392b0822b70005940c7a398e4b70f361175b565b901c90505b610800821615610cbb576080610cb6826fe7159475a2c29b7443b29c7fa6e889d961175b565b901c90505b611000821615610ce6576080610ce1826fd097f3bdfd2022b8845ad8f792aa582561175b565b901c90505b612000821615610d11576080610d0c826fa9f746462d870fdf8a65dc1f90e061e561175b565b901c90505b614000821615610d3c576080610d37826f70d869a156d2a1b890bb3df62baf32f761175b565b901c90505b618000821615610d67576080610d62826f31be135f97d08fd981231505542fcfa661175b565b901c90505b62010000821615610d93576080610d8e826f09aa508b5b7a84e1c677de54f3e99bc961175b565b901c90505b62020000821615610dbe576080610db9826e5d6af8dedb81196699c329225ee60461175b565b901c90505b62040000821615610de8576080610de3826d2216e584f5fa1ea926041bedfe9861175b565b901c90505b62080000821615610e10576080610e0b826b048a170391f7dc42444e8fa261175b565b901c90505b60008460020b1315610e2b57610e288160001961177a565b90505b610e39600160201b8261178e565b15610e45576001610e48565b60005b610e599060ff16602083901c6117a2565b949350505050565b6000846001600160a01b0316632495a5996040518163ffffffff1660e01b815260040160206040518083038186803b158015610e9c57600080fd5b505afa158015610eb0573d6000803e3d6000fd5b505050506040513d601f19601f82011682018060405250810190610ed49190611488565b9050610eeb6001600160a01b0382163330856110c0565b60405163095ea7b360e01b81526001600160a01b0386811660048301526024820184905282169063095ea7b390604401602060405180830381600087803b158015610f3557600080fd5b505af1158015610f49573d6000803e3d6000fd5b505050506040513d601f19601f82011682018060405250810190610f6d91906117ba565b50846001600160a01b0316637717797f338686610f8987611052565b6040516001600160e01b031960e087901b1681526001600160a01b039094166004850152600292830b6024850152910b60448301526064820152608401600060405180830381600087803b158015610fe057600080fd5b505af1158015610ff4573d6000803e3d6000fd5b505050505050505050565b6000826001600160a01b0316846001600160a01b0316111561101f579192915b61104861104383600160601b61103588886116c8565b6001600160a01b0316611154565b611267565b90505b9392505050565b60006001600160ff1b038211156110bc5760405162461bcd60e51b815260206004820152602860248201527f53616665436173743a2076616c756520646f65736e27742066697420696e2061604482015267371034b73a191a9b60c11b60648201526084016109bc565b5090565b60006040516323b872dd60e01b81526001600160a01b03851660048201526001600160a01b038416602482015282604482015260008060648360008a5af191505061110a81611282565b61114d5760405162461bcd60e51b81526020600482015260146024820152731514905394d1915497d19493d357d1905253115160621b60448201526064016109bc565b5050505050565b6000808060001985870985870292508281108382030391505080600014156111c457600084116111b95760405162461bcd60e51b815260206004820152601060248201526f4469766973696f6e206279207a65726f60801b60448201526064016109bc565b50829004905061104b565b8084116111fe5760405162461bcd60e51b81526020600482015260086024820152676f766572666c6f7760c01b60448201526064016109bc565b60008486880960026001871981018816978890046003810283188082028403028082028403028082028403028082028403028082028403029081029092039091026000889003889004909101858311909403939093029303949094049190911702949350505050565b806001600160801b038116811461127d57600080fd5b919050565b60003d8261129457806000803e806000fd5b80602081146112ac5780156112bd57600092506112c2565b816000803e600051151592506112c2565b600192505b5050919050565b6001600160a01b03811681146112de57600080fd5b50565b6000602082840312156112f357600080fd5b813561104b816112c9565b8060020b81146112de57600080fd5b803561127d816112fe565b80151581146112de57600080fd5b600060c0828403121561133857600080fd5b60405160c081016001600160401b038111828210171561136857634e487b7160e01b600052604160045260246000fd5b6040528235611376816112c9565b81526020830135611386816112fe565b60208201526040830135611399816112fe565b60408201526060838101359082015260808301356113b681611318565b608082015260a0928301359281019290925250919050565b600060e082840312156113e057600080fd5b60405160e081016001600160401b038111828210171561141057634e487b7160e01b600052604160045260246000fd5b604052823561141e816112c9565b8152602083013561142e81611318565b602082015260408381013590820152606083013561144b816112c9565b6060820152608083013561145e816112fe565b608082015261146f60a0840161130d565b60a082015260c083013560c08201528091505092915050565b60006020828403121561149a57600080fd5b815161104b816112c9565b6000606082840312156114b757600080fd5b604051606081016001600160401b03811182821017156114e757634e487b7160e01b600052604160045260246000fd5b60405282516114f5816112c9565b81526020830151611505816112fe565b6020820152604083015160ff8116811461151e57600080fd5b60408201529392505050565b634e487b7160e01b600052601160045260246000fd5b60008160020b8360020b6000821282627fffff038213811516156115665761156661152a565b82627fffff1903821281161561157e5761157e61152a565b50019392505050565b634e487b7160e01b600052601260045260246000fd5b60008160020b8360020b806115b4576115b4611587565b627fffff198214600019821416156115ce576115ce61152a565b90059392505050565b6001600160a01b03949094168452600292830b6020850152910b60408301526001600160801b0316606082015260800190565b60006020828403121561161c57600080fd5b5051919050565b60006020828403121561163557600080fd5b815161104b816112fe565b60008160020b8360020b6000811281627fffff19018312811516156116675761166761152a565b81627fffff01831381161561167e5761167e61152a565b5090039392505050565b60008160020b627fffff198114156116a2576116a261152a565b60000392915050565b6000600160ff1b8214156116c1576116c161152a565b5060000390565b60006001600160a01b03838116908316818110156116e8576116e861152a565b039392505050565b60006001600160a01b038281168482168083038211156117125761171261152a565b01949350505050565b600080600080600060a0868803121561173357600080fd5b5050835160208501516040860151606087015160809097015192989197509594509092509050565b60008160001904831182151516156117755761177561152a565b500290565b60008261178957611789611587565b500490565b60008261179d5761179d611587565b500690565b600082198211156117b5576117b561152a565b500190565b6000602082840312156117cc57600080fd5b815161104b8161131856fea26469706673582212208aa211da81888a7e43b5c02d5f27eca60e9a804f77f8edd9c34389ee997372a764736f6c63430008090033",
  "linkReferences": {},
  "deployedLinkReferences": {}
}